:020000040800F2
:1000000090060020B5010008B5130008AD130008E4
:10001000B113000871020008011700080000000079
:10002000000000000000000000000000F5160008BD
:100030007502000800000000B9130008F916000856
:10004000CF010008CF010008CF010008CF01000850
:10005000CF010008CF010008CF010008CF01000840
:10006000CF010008CF010008CF010008CF01000830
:10007000CF010008CF010008CF010008CF01000820
:10008000CF010008CF010008CF010008CF01000810
:10009000CF010008CF010008CF010008CF01000800
:1000A000CF010008CF010008CF010008CF010008F0
:1000B000CF010008CF010008CF010008CF010008E0
:1000C000CF010008CF010008CF010008CF010008D0
:1000D000CF010008CF010008CF010008CF010008C0
:1000E000CF010008CF010008CF01000800F002F89E
:1000F00000F050F814A696E8000CB244B344DA4578
:1001000001D100F047F8BAE80F000FA696E83000DA
:10011000A5EB040504EB0607AAEB0704A7F101070A
:100120004FEA15154FEA3414A4F10104AC4201D38F
:1001300000F030F813F0010F18BFFB1A43F0010371
:1001400000F001F8DBE7184790170000B017000037
:10015000103A24BF78C878C1FAD8520724BF30C8F3
:1001600030C144BF04680C60704700007047000055
:100170000023002400250026103A28BF78C1FBD8B0
:10018000520728BF30C148BF0B6070471FB51FBD65
:1001900010B510BD00F031F81146FFF7F7FF01F080
:1001A000B1FA00F04FF803B4FFF7F2FF03BC00F020
:1001B00057F800000948804709480047FEE7FEE776
:1001C000FEE7FEE7FEE7FEE7FEE7FEE7FEE7FEE707
:1001D00004480549054A064B70470000FD16000813
:1001E000ED00000890000020900600209002002002
:1001F00090020020704770477047754600F02CF859
:10020000AE4605006946534620F00700854618B003
:1002100020B5FFF7DDFFBDE820404FF000064FF0AE
:1002200000074FF000084FF0000BAC46ACE8C009E7
:10023000ACE8C009ACE8C009ACE8C00921F007018E
:100240008D46704710B50446AFF300802046BDE8E8
:100250001040FFF7A8BF00000048704710000020C2
:1002600001491820ABBEFEE72600020070470000DF
:10027000FEE700007047000040F28C00C2F2000070
:100280000068704740F2000040F28C01C2F20000AA
:10029000C2F2000100780A6810440860704700004C
:1002A00080B542F20000C4F20200016841F0100182
:1002B0000160032000F07AF80F2000F005F800F04C
:1002C00027F8002080BD000070B540F20006C2F2A1
:1002D000000640F208013278C2F200014FF47A734E
:1002E0000968B3FBF2F20446B1FBF2F1084601F0F3
:1002F00047F80F2C4FF0010508D838B94FF0FF3000
:1003000021460022002500F025F87460284670BDC3
:1003100082B041F21800C4F202000168022241F0EA
:1003200001010160016801F0010101910199416839
:1003300041F080514160406800F08050009000988A
:100340000420C4F20100016862F31A61016002B086
:100350007047000010B54EF60C5CCEF2000CDCF8D5
:100360000030C3F3022E8EF00704042C28BF0424AF
:10037000BEF103034FF0FF3E0EFA04F438BF002332
:10038000A14399400EFA03F39A43114300F00F0280
:1003900000F160430901043A03F564436244002814
:1003A00048BF02F10C03197010BD00004EF60C514D
:1003B000CEF200010A684FF6FF031A4060F30A22EA
:1003C00042F0806040F0FD70086070472020C4F269
:1003D0000E20012101607047012821D002280DD094
:1003E000102808D141F20401C4F202010A6851F850
:1003F000040CC00134D40020704700BF80B500F069
:10040000C7F941F20401C4F2020109680222C1F3F2
:10041000813102EB4101B0FBF1F0BDE88040704753
:1004200041F20400C4F20200C16940F202320A4003
:10043000B2F5817F04BF4FF40040704701F4407172
:10044000B1F5407F18D0B1F5007F1CBF0020704788
:10045000006A49F64041800701EAE070704700BF3A
:10046000C2F3834015A3185CD2030DD440F60012EA
:10047000C0F23D02504313E050F8040C4FF2244107
:10048000800301EAE07070470A6810A3C2F340429B
:100490009A5C41F20023C0F27A03B3FBF2F25043BC
:1004A0000968490248BF70474AF6AB214000CAF6C6
:1004B000AA21A0FB01014808704700BF0203040500
:1004C000060708090A0B0C0D0E0F101001020000A0
:1004D0002DE9F04182B00446007841F21C06C007C5
:1004E000C4F202064AD030685FEAC00808D4306817
:1004F00040F080503060306800F0805001900198EA
:1005000047F20007C4F200073868C00512D4386803
:1005100040F480703860FFF7AFFE05463868C005CC
:1005200008D4FFF7A9FE401B6428F7D9032002B0C6
:10053000BDE8F081706810F4407012D0616801F479
:10054000407188420DD0706840F24042C4F24222AD
:10055000012320F4407113600023C0071360716011
:1005600026D17068616820F440700843B8F1000F2C
:10057000706003D4306820F08050306020688107BC
:1005800007D556F8181CA26821F44041114346F8DB
:10059000181CC00607D556F8180CE16820F4800036
:1005A000084346F8180C002002B0BDE8F08100BFF7
:1005B000FFF762FE054641F2883700BF706880078A
:1005C000CFD4FFF759FE401BB8424FF00300F5D9D6
:1005D000EAE70000002804BF012070472DE9F0433E
:1005E00081B042F20008C4F202080446D8F80000C4
:1005F0000D4600F0070088420CD2D8F8000020F029
:1006000007002843C8F80000D8F8000000F00700F1
:10061000A8426CD1206841F204098107C4F20209A2
:1006200017D5410705D5D9F8001041F4E061C9F8A4
:100630000010010705D5D9F8001041F46051C9F840
:100640000010D9F80010A26821F0F0011143C9F898
:100650000010C00742D1D8F8000000F00700A842FF
:100660000CD9D8F8000020F007002843C8F8000093
:10067000D8F8000000F00700A84238D120684107F0
:1006800007D5D9F80010E26821F4E0611143C9F8F8
:100690000010000708D5D9F80000216920F4605047
:1006A00040EAC100C9F80000D9F8002002F00C00AF
:1006B000082841F20020C0F27A004DD141F6C8036B
:1006C000C2F38341C0F60003595CD20338D440F62C
:1006D0000010C0F23D0048433EE000BF606859F89A
:1006E000041C022808D0012826D1890306D4012041
:1006F00001B0BDE8F08300BF8901F8D5D9F800103A
:1007000021F003010843C9F80000FFF7B5FD0646D4
:1007100041F28837D9F80000616800F00C00B0EBB6
:10072000810F98D0FFF7A8FD801BB842F2D90320B3
:1007300001B0BDE8F08300BF8907D8D5DEE700BF70
:10074000D9F8002041F6C603C2F34042C0F60003C8
:100750009A5C4843B0FBF2F0D9F8001041F6AE02C3
:10076000C1F30311C0F60002515C40F2080220FA06
:1007700001F140F20400C2F200000068C2F200027F
:100780001160FFF7A1FD002001B0BDE8F08300007B
:1007900040F2080041F20401C2F20000C4F202017A
:1007A0000068096841F6BE02C1F3C221C0F600022A
:1007B000515CC84070470000002804BF012070470A
:1007C0002DE9F04182B00446007841F20006C007EE
:1007D000C4F202060CD0706800F00C00042840F04F
:1007E00081803068800303D56068002800F046816E
:1007F000207880071BD5706810F00C0F09D0706846
:1008000000F00C00082840F087807068C00300F1F9
:1008100083803068800703D52069012840F02E814D
:100820003068616920F0F80040EAC100306020784B
:10083000000713D4207840072CD4E569002D00F080
:100840001881706800F00C00082840F0A780012D86
:1008500040F00481012002B0BDE8F081A0690028C9
:1008600000F084800020C4F242200121C0F88014EE
:10087000FFF702FD054600BF706A800700F1B280F5
:10088000FFF7FAFC401B0228F6D9032002B0BDE8AE
:10089000F08100BFF0695FEAC00808D4F06940F059
:1008A0008050F061F06900F080500090009847F2AD
:1008B0000007C4F200073868C00549D4386840F41E
:1008C00080703860FFF7D8FC054600BF3868C00567
:1008D0003ED4FFF7D1FC401B6428F7D9032002B0B7
:1008E000BDE8F081706800F00C00082803D1706842
:1008F000C0033FF576AF61683068002900F00C81D5
:10090000B1F5A02F00F00081B1F5803F40F01A81D1
:1009100040F480301CE100BF2069002840F2000054
:10092000C4F2422000F0888001210160FFF7A4FC9E
:10093000054600BF306880073FF572AFFFF79CFCAB
:10094000401B0228F6D9032002B0BDE8F08100BFA9
:10095000E168306A002900F09D80052900F092804E
:10096000012940F0AF8040F00100B1E00020C4F266
:1009700042200021C0F88014FFF77EFC054600BF2E
:10098000706A80077FF556AFFFF776FC401B0228A0
:10099000F6D9032002B0BDE8F08100BF0027C4F201
:1009A000422700203866FFF767FC022D05460DD16F
:1009B0003068800140F1DE80FFF75EFC401B0228BA
:1009C0004FF00300F4D902B0BDE8F0813068800137
:1009D0004FD5FFF751FC401B02284FF00300F5D91B
:1009E000F1E700BF40F20800C2F20000006844F6E0
:1009F000D351C1F26201A0FB0101480A019000BF7E
:100A000000BF0198411E002801913FF413AF00BFC1
:100A10000198411E002801913FF40CAF00BF0198DE
:100A2000411E002801913FF405AF00BF0198411E0F
:100A300000280191E4D1FDE600210160FFF71CFCD4
:100A4000054600BF306880077FF5F1AEFFF714FC64
:100A5000401B02284FF00300F4D9B4E77068216A04
:100A600000F480328A4209D1616A00F47010884231
:100A700004D1002002B0BDE8F08100BF012002B027
:100A8000BDE8F08140F004003062306A40F00100BF
:100A90001EE000BF20F001003062306A20F0040048
:100AA0003062FFF7E9FB054641F28837306A80077C
:100AB00020D5FFF7E1FB401BB8424FF00300F5D90A
:100AC00081E700BF20F001003062306A20F00400AE
:100AD0003062FFF7D1FB054641F28837306A800764
:100AE00008D4FFF7C9FB401BB842F7D9032002B076
:100AF000BDE8F081B8F1000F3FF59FAEF06920F03E
:100B00008050F06199E600BF40F48020306030688A
:100B100040F480301CE000BF20F48030306030684A
:100B200020F480203060FFF7A7FB05463068800383
:100B30007FF55EAEFFF7A0FB401B64284FF003007B
:100B4000F4D940E720F480303060306820F4802011
:100B50003060FFF791FB0546306880033FF548AEF3
:100B6000FFF78AFB401B6428F6D9032002B0BDE8DA
:100B7000F08100BF206AB0F5803F05D17168A2689E
:100B800021F40031114371607168626A21F47411BB
:100B900011430843706001203866FFF76DFB04467F
:100BA000306880013FF565AFFFF766FB001B022848
:100BB0004FF00300F4D906E746F60040C4F2000007
:100BC00050F8210080B2704790B246F60042C4F25D
:100BD000000242F82100704770B582B00346002041
:100BE0008DF80600ADF80400002B4FF0010018BF8F
:100BF000002901D102B070BD14460D4601A9184666
:100C000000221E4600F04EF810B1012002B070BD67
:100C100096F80CC0727BB07BF37B85F800C0EB705C
:100C20006A70A870D4B32946A3F10A05ECB24FF05C
:100C3000CD0C04FB0CF4E40A04EB8406A5EB46059A
:100C4000A2F10A0605EB0414F5B205FB0CF55FFAF8
:100C500083FEED0ABEF1090F88BF04F1100305EB16
:100C60008504CB70D3B2A6EB440606EB0516092B20
:100C7000A0F10A0388BF06F11002DEB206FB0CF6F3
:100C8000F60A06EB86054A70C2B2A3EB450303EBF6
:100C90000613092A88BF03F110008870002002B0F3
:100CA00070BD00002DE9F047064600284FF0010016
:100CB00000F0AE800C46002908BFBDE8F087306820
:100CC0004168490700F1E08091468169C2698769FE
:100CD0008BB2B9B28B4203D1190492B203E000BFC8
:100CE000C3690A0499B211434BF2C532C9F2A21288
:100CF000A1FB0223DA0A4FF4616302FB131348F6E7
:100D000089059FB26F437D0D65702D01A5EB575787
:100D1000A3EB870345F28017C0F20107B942A37025
:100D200036D344F20753CCF22E23A1FB03374AF605
:100D3000AB23C0F6AA23A2FB033505EB4503A2EBC8
:100D4000C3022270026A406A4FEA174880B240EA42
:100D50000240451A98BF4FF0FF35421C4AF68062A8
:100D6000CFF6FE7208FB021A08BF0546FFF784FAA9
:100D7000074600BF3068416889064BD4FFF77CFA0C
:100D8000C01BB0F57A7FF5D90120BDE8F08700BF20
:100D90002270B9F1000F3AD021784FF0CD0CA1F1BB
:100DA0000A07FEB206FB0CF6F60A627806EB860529
:100DB000CBB2A7EB450707EB0617092BA2F10A03F5
:100DC000A07888BF07F11001DFB207FB0CF7FF0A1C
:100DD00007EB87062170D1B2A3EB460303EB0713A1
:100DE000092988BF03F110026270A0F10A02D3B290
:100DF00003FB0CF3DB0A03EB8307C1B2A2EB470250
:100E000002EB0312092988BF02F11000A070002034
:100E1000BDE8F087416841F0100141604FEA1A4196
:100E200081611FFA8AF1C161416821F010014160BE
:100E3000FFF722FA074600BF30684068800609D4F1
:100E4000FFF71AFAC01BB0F57A7FF5D90120BDE88B
:100E5000F08700BF681C11D05544FFF70DFA074614
:100E600030684168890613D4FFF706FAC01BB0F555
:100E70007A7F4FF00100F3D9CAE700BF30464FF048
:100E8000FF3100F007FC08B30120BDE8F08700BF88
:100E9000416841F010014160290C0162A9B2416230
:100EA000416821F010014160FFF7E6F9074600BFF5
:100EB00030684068800609D4FFF7DEF9C01BB0F542
:100EC0007A7F4FF00100F3D9A2E700BF30464146D8
:100ED00000F074FAB9F1000F7FF45EAF97E70000FD
:100EE000002804BF0120704770B50446407C20B93B
:100EF00000202074204600F06BF802206074206807
:100F0000416821F008014160FFF7B6F9064600BFCD
:100F100020684568FFF7B0F9290705460ED4A81BDD
:100F2000B0F57A7FF4D901200421617470BD00BF4F
:100F3000FFF7A2F9401BB0F57A7FF4D82168486822
:100F40008006F5D5486846F62C4240F0100048600F
:100F50004868C4F2000220F007004860A06818B199
:100F6000536823F001035360136823F4607318433C
:100F700010606068421C05D10120FFF72DFA18B3FC
:100F800021680138C0F3034280B28A60C8604868B3
:100F900020F010004860FFF76FF9054620684068B0
:100FA000800607D4FFF768F9401BB0F57A7FF5D9C2
:100FB000B9E700BF40F201110020A4F80D10012193
:100FC000E073617470BD00BF04210120617470BDC5
:100FD000006842F60001C4F20001884218BF704761
:100FE00080B582B0FFF7F2F941F21C00C4F20200B2
:100FF000016841F0006101600068012100F00060BB
:101000000190019840F23C40C4F24220016002B0DD
:10101000BDE8804070470000F0B581B0044600286C
:101020004FF0010018BF002902D101B0F0BD00BF90
:10103000207C01284FF00200F7D001232374607454
:10104000CB78BAB1180900EB800003F00F0202EB75
:10105000400348788A78070907EB870700F00F00FC
:1010600000EB4707100900EB800002F00F0202EBD3
:10107000400001E04F788878022FDAB2E37367739B
:10108000A0730DD817237B434CF21D77C1F671472F
:10109000A3FB073702F2CF7340F2D4760BE000BF18
:1010A00048F63E66FFB2C0F20206774302F5FA63E5
:1010B0003F0C40F2D276C0B21044304440F21F558B
:1010C00000EB93005D433844A0EB554000EBD54066
:1010D00082B242F293435A43A0EB12439BB25B08A5
:1010E00003EB12429208A2EBC20202442068227370
:1010F0000A708269C169876993B2BAB2934203D117
:10110000180489B203E000BFC069110480B208432B
:1011100045F69071C0F2010188424FF000061BD3E2
:1011200044F20751CCF22E21A0FB0112110C40F227
:10113000A3225143A0EBC117FFF79EF8054600BF5D
:101140002068416889060DD4FFF796F8401BB0F57A
:101150007A7FF5D93AE000BF01210020617426743E
:1011600001B0F0BD416841F010014160390C81616E
:10117000B9B2C161416821F010014160FFF77CF80C
:10118000054600BF20684168890607D4FFF774F858
:10119000401BB0F57A7FF5D918E000BF016A406ABC
:1011A00080B240EA0140B84234D200F5803000F508
:1011B000A347FFF761F805462068416889060BD40C
:1011C000FFF75AF8401BB0F57A7FF5D901200421CA
:1011D0006174267401B0F0BD416841F010014160B6
:1011E000390C0162B9B24162416821F010014160DD
:1011F000FFF742F805462068406880060AD4FFF7EA
:101200003BF8411B0120B1F57A7F4FF00401F2D980
:10121000A4E700BF002001216174267401B0F0BD75
:1012200070B5044600284FF0010018BF002901D115
:1012300070BD00BF207C01284FF0020008BF70BDC8
:10124000012323746074087802B3020902EB82025E
:1012500000F00F0000EB4200C0B24FF46162504357
:101260004A788978130903EB830302F00F0202EB3B
:101270004302D2B2C2EB021200EB82000A0902EB77
:10128000820201F00F0101EB420108E04FF46162BC
:1012900050434A788978C2EB021200EB8200C9B24F
:1012A0004618FEF7E9FF054620684168890607D41D
:1012B000FEF7E2FF401BB0F57A7FF5D954E000BF9E
:1012C000416841F010014160310C8161B1B2C161EE
:1012D000416821F010014160FEF7CEFF054600BFD6
:1012E00020684168890607D4FEF7C6FF401BB0F5A9
:1012F0007A7FF5D938E000BF416821F005014160EF
:10130000016A406A80B240EA0140B04232D200F540
:10131000803000F5A346FEF7AFFF05462068416820
:10132000890607D4FEF7A8FF401BB0F57A7FF5D9F0
:101330001AE000BF416841F010014160310C0162C8
:10134000B1B24162416821F010014160FEF794FFA3
:10135000054600BF2068406880060BD4FEF78CFF6E
:10136000401BB0F57A7FF5D901200421617400217A
:10137000217470BD0020012161740021217470BDB1
:10138000411E0020B0EB116F1CBF012070474EF2D0
:101390001002CEF2000251604EF62351CEF200014F
:1013A000F0230B700721906011607047FEE700008A
:1013B000FEE70000FEE70000704700002DE9F04363
:1013C000427B90F80EE090F80FC0002900F0E38017
:1013D000012917D1C90700F0DE800C2A00F2DB805A
:1013E0000121914041F2AA53194200F0C780BEF199
:1013F0001F0FC0F0C9800C2A40F0CA800CF1010C0C
:101400000122C6E045F6294945F628474DF20B78FA
:1014100021F00103012441F2AA55CCF28F29C0F238
:101420008F27C0F2A30803E00EF1010E023BD1D0DA
:101430000C2A1AD804FA02F62E4209D0BEF11E0F69
:101440000CD90C2A0ED10CF1010C01220BE000BFCB
:1014500016F4256F24D0BEF11D0F03D80EF1010E36
:1014600003E000BF01324FF0010E0C2ADED804FA6F
:1014700002F62E420AD0BEF11F0FD5D30C2A0BD193
:101480000CF1010C01224FF0010ECFE716F4256F8D
:1014900010D0BEF11E0FC7D301324FF0010EC5E7C9
:1014A000022AE2D1BEF11B0F0ED80EF1010E02226C
:1014B000DBE700BF022AB9D1BEF11C0F10D20EF13A
:1014C000010E0222B2E700BFBEF11D0F10D0BEF127
:1014D0001C0F17D15FEA8C7218D0002231E000BFD8
:1014E0000AD0BEF11D0F0FD14FF0010E03229DE770
:1014F0004FF0010E0322B8E75FEA8C7210D0002291
:1015000031E000BF0222B0E702228FE71FFA8CF21F
:1015100002FB09F24FEAB206BE420BD9012210E0EB
:101520001FFA8CF202FB09F24FEAB206BE4213D94F
:10153000012218E04FEA321242454FF0000238BF54
:101540000122002A4FF002024FF01D0E08BF0322B5
:1015500008BF4FF0010E88E74FEA321242454FF0C4
:10156000000238BF0122002A4FF002024FF01D0E88
:1015700008BF032208BF4FF0010E57E711F4256F93
:101580004AD0BEF11E0F03D20EF1010E03E000BFE0
:1015900001324FF0010ED1B2022980F80FC0427320
:1015A00080F80EE00CD8172251434CF21D72C1F6A0
:1015B0007142A1FB02210CF2CF7240F2D47309E018
:1015C00048F63E63C0F2020359430CF5FA62090C77
:1015D00040F2D2735FFA8EF748F21F546744C5F2A7
:1015E000EB143B44A2FB044503EB9202A2EB551221
:1015F00002EBD512114444F62512C2F29242A1FB2D
:101600000223CA1A03EB52029308DB00A3EB9202F7
:10161000891A0173BDE8F083022ABCD1BEF11C0F08
:1016200004D20EF1010E0222B5E700BF06D0BEF1D2
:101630001D0F09D14FF0010E0322ACE75FEA8C7158
:1016400004D001211CE000BF0222A4E745F6294294
:101650001FFA8CF1CCF28F224A4345F628434FEA19
:10166000B201C0F28F2399424FF0000108D84DF229
:101670000A734FEA3212C0F2A3039A4288BF0121D3
:1016800002224FF01D0E002918BF032218BF4FF091
:10169000010E80E770B50D460446FEF7EDFD0646E7
:1016A00020684168890607D4FEF7E6FD801BB0F587
:1016B0007A7FF5D91AE000BF416841F0100141601E
:1016C000290C0162A9B24162416821F01001416018
:1016D000FEF7D2FD054600BF20684068800607D4AB
:1016E000FEF7CAFD401BB0F57A7FF5D9012070BD29
:1016F000002070BD70470000FEF7C4BD70470000B9
:10170000FEE7000094B0FEF7CBFD03200A904FF4F3
:10171000803000240B900120CDE91244CDE9104423
:10172000CDE90E440E9010200F900AA8CDE90C448C
:10173000CDE90344FFF740F820B1EFF3108072B613
:10174000FEE700BF0F20CDE9050405A80021CDE983
:1017500007440994FEF73EFF20B1EFF3108072B604
:10176000FEE700BF012001904FF44070029001A8F5
:10177000FEF7AEFE20B1EFF3108072B6FEE700BFB9
:1017800041F21800C4F20200016840F2700441F016
:10179000200101600168C2F2000401F020010A91F9
:1017A0000A9901684FF4807241F0040101600068F9
:1017B00042F6000100F004000A900A9800208DF81B
:1017C0001600ADF814000A90C4F20001204640F85B
:1017D000081F4FF0FF31C0E90112FFF781FB28B16C
:1017E000EFF3108072B600BFFEE700BF04F10805FA
:1017F00028460121FFF7E0F942F20861884227D12B
:1018000040F60C40ADF814000C208DF8160005A928
:1018100028460022FFF704FD20B1EFF3108072B6D6
:10182000FEE700BF40F20110C0F201000A900AA9D1
:1018300028460022FFF7F0FB20B1EFF3108072B6CC
:10184000FEE700BF2846012142F20862FFF7BCF91B
:1018500040F60C40ADF814000C208DF8160005A9D8
:1018600028460022FFF7DCFC20B1EFF3108072B6AF
:10187000FEE700BF40F20110C0F201000A900AA981
:1018800028460022FFF7C8FB20B1EFF3108072B6A4
:10189000FEE700BFE61C00BF284621460022FFF7F6
:1018A00001FA284631460022FFF796F9F4E70000D6
:1018B0000000000000000102030406070809000000
:1018C00000000102030401020203040506070809DF
:1018D0000A0B0C0D0E0F1010F81800080000002065
:1018E0001000000050010008081900081000002036
:1018F00080060000700100080100000010000000D8
:0819000000127A000000000053
:04000005080000ED02
:00000001FF
