:020000040800F2
:10000000C0060020D5010008D91F0008D11F000834
:10001000D51F0008C50B00080521000800000000DE
:10002000000000000000000000000000E11F0008C8
:10003000C90B000800000000DD1F0008E51F0008D4
:10004000EF010008EF010008EF010008EF010008D0
:10005000EF010008EF010008EF010008EF010008C0
:10006000EF010008EF010008EF010008EF010008B0
:10007000EF010008EF010008EF010008EF010008A0
:10008000EF010008EF010008EF010008EF01000890
:10009000EF010008EF010008EF010008EF01000880
:1000A000EF010008EF010008EF010008EF01000870
:1000B000EF010008EF010008EF010008EF01000860
:1000C000EF010008EF010008EF010008EF01000850
:1000D000EF010008F9200008EF010008EF01000817
:1000E000EF010008EF010008EF01000800F002F83E
:1000F00000F060F814A696E8000CB244B344DA4568
:1001000001D100F057F8BAE80F000FA696E83000CA
:10011000A5EB040504EB0607AAEB0704A7F101070A
:100120004FEA15154FEA3414A4F10104AC4201D38F
:1001300000F040F813F0010F18BFFB1A43F0010361
:1001400000F001F8DBE71847B8290000D8290000C3
:10015000103A24BF78C878C1FAD8520724BF30C8F3
:1001600030C144BF04680C60704700007047000055
:100170000023002400250026103A28BF78C1FBD8B0
:10018000520728BF30C148BF0B607047662902F094
:100190005584642900F05480002070471FB500F09A
:1001A0009BFB04000020002102F032FCE0601FBD38
:1001B00010B510BD00F090FC1146FFF7EFFF01F005
:1001C000A3FF00F0AEFC03B4FFF7F2FF03BC00F0A6
:1001D000F1FC00000948804709480047FEE7FEE7B8
:1001E000FEE7FEE7FEE7FEE7FEE7FEE7FEE7FEE7E7
:1001F00004480549054A064B70470000E91F0008FE
:10020000ED000008C0000020C0060020C002002051
:10021000C00200200FB41CB5084B06AA7B446946F7
:100220000090059800F03FFB04460020694600F06E
:100230004DFB20461CBC5DF814FB0000AD06000021
:100240002DE9F0410646002410687529314616A5AF
:1002500010D0AFF30080002802DA404213A507E077
:1002600031688A0701D512A502E0490704D511A516
:10027000012401E0AFF3008000210A2206F12407E7
:1002800009E0B0FBF2FCB0FBF2F302FB1C003030E3
:1002900078541846491C0028F3D123462A46304694
:1002A000BDE8F04100F092B8000000002D00000011
:1002B0002B000000200000002DE9F0474FF0000A5D
:1002C00089460446C0F820A02046E16888470028F7
:1002D00076D0252806D0D4E901219047206A401C19
:1002E0002062F1E7E168204600258847C4F81CA099
:1002F00006460027C4F818A02A2E09D0304602F07E
:100300007FFB38B304EB8708303EC8F8186019E06B
:1003100059F8041B204604EB87029161E168884785
:10032000012F064618D1E069002820DA25F02005C3
:100330001DE0D8F8180000EB800006EB40003038D4
:10034000C8F818002046E1688847064602F058FBC6
:100350000028EED1012F0AD02E2E08D12046E168C8
:1003600088477F1C0646022F45F02005C4DBA069A4
:10037000002803DA404245F00105A061E80701D0FA
:1003800025F01005B6B1A6F14100192802D8203693
:1003900045F400654A463146204625604D46FFF744
:1003A000F5FE58B1012806D0ED1D25F0070000F13B
:1003B000080989E704E005F1040985E730468AE782
:1003C000206ABDE8F0877047704770472DE9F04715
:1003D0000D4699469246044600F1240801688806B5
:1003E00004D5E06921F01001216000E00120A8425D
:1003F00001DD471B00E00027A1697A1902EB090023
:10040000081AA0612078C00602D42046AFF300800D
:10041000002608E0D4E901211AF806009047206A76
:10042000401C761C20624E45F4DB2078C0060AD5BD
:100430002046AFF3008006E0D4E901213020904748
:10044000206A401C2062381EA7F10107F4DC07E097
:10045000D4E9012118F805009047206A401C206269
:10046000281EA5F10105F3DC2046AFF300802078BB
:10047000000602D50220BDE8F0870120FBE72DE948
:10048000FF4F0C461E464FF0FF378BB0D2E90001FC
:10049000DDF860800A908A46C1F30A5505B93D46E9
:1004A000002108464FF00000BAF1000F00F44000B0
:1004B00005DA00EB80004FF4400101EA50004FEAFA
:1004C0009059B9F1010F00DDB9460A9850EA4A0087
:1004D0000ED044F61050A5F2FF3545432F14B8F165
:1004E000000F1ED07542291E1EDDC9F100021CE05E
:1004F000B8F1010F4FF0000001D0302103E0F243CA
:1005000005E02154401CB042FBDB304600220021B4
:1005100021540B99C1F80880C1E900200FB0BDE853
:10052000F08FBD1B6D1CDEE74A4600DA694206A863
:1005300000F05CFA06AB93E8070003AB83E8070022
:1005400050460A9901F080FE8DE80700A0F50050A2
:100550001F3800900398002D0ADD42F21F014A4621
:100560000844002303A90390684602F0E9F809E073
:10057000A0F500504A461F38002303A9039068469F
:1005800002F0F3F88DE807000004000C03D04FF0F0
:10059000FF30410800E01046B8F1000F03D0002200
:1005A000009215461EE0751E05D400F099F9303210
:1005B00062556D1EF9D5B3460122084302D00022D0
:1005C0007F1C04E02078302801D100227F1E002A01
:1005D000099784D01DE0112D07DA00F081F930323F
:1005E00062556D1C50EA0102F5D1084302D0009813
:1005F000C8B10EE00021681E05E0235C625C635414
:100600002254401E491C8142F7DBAB46A81B401E0A
:100610000990002004F80B000B98099AC0F8088094
:10062000C0E9002B7AE711264FF0000857E72DE9C3
:10063000F04F88460446D21D22F0070191B0D1E95F
:100640000001CDE90A0102F0C7F902460B98C00F7C
:1006500001D02D2007E02068810701D52B2002E082
:10066000202101EAC000032A099001D0072A05DBF6
:1006700003464146204600F079F90BE120788006D8
:1006800001D5E06900E00620B8F1650F814606D08B
:10069000B8F1660F18D0B8F1670F70D131E00020C3
:1006A000B9F1110F009001DB112301E009F1010301
:1006B0000AAA01A90CA8FFF7E2FEDDE90C700026EA
:1006C00009F10105834647E001204B4600904FF0B9
:1006D00000470AAA01A90CA8FFF7D1FEDDE90DB079
:1006E0000C995D46002610B909F101000D18B9EB0F
:1006F000050003D4C0F1FF3609F10105A5EB09009F
:100700002BE0B9F1010F01DA4FF001090020B9F136
:10071000110F0090484601DD112300E003460AAAAC
:1007200001A90CA8FFF7ABFEDDE90C704D460026D1
:100730008346207800070AD4AB4500DA5D4601A85D
:10074000012D04DD411911F8011C302907D04F4556
:1007500002DA17F1040F04DA012082460FE06D1E61
:10076000EEE7002F02DCED1B3E4403E0781CA842BC
:1007700000DD7D1CB81B00F1010A4FF00047207816
:10078000000703D4AA4501DB4FF0FF3A0021B7F17F
:10079000004F0DF143088DF8431024D002202B2385
:1007A000002F01DA7F422D230A21021EA0F1010051
:1007B00000DC5FB197FBF1FC97FBF1F201FB1C7CC5
:1007C00017460CF1300C08F801CDEEE7A8F1010056
:1007D00003702188090501D5452100E06521A0F1BC
:1007E000010800F8011C09980FA9A1EB0807FF1DDB
:1007F00000B10120411901EBEA70A1693844081ADF
:10080000401EA0612078C00602D42046AFF30080CD
:10081000099828B1D4E901219047206A401C206240
:100820002078C00622D52046AFF300801EE0002EBF
:1008300004DBB34502DD01A8805D00E03020D4E98F
:1008400001219047206A401C2062761CAAF1010019
:100850005FEA000A0AD100F03FF8C0680168405C16
:10086000D4E901219047206A401C2062281EA5F18E
:100870000105DCDC07E0D4E9012118F8010B904701
:10088000206A401C2062381EA7F10107F3DC2046D5
:10089000AFF30080032011B041E6000001694A1C5B
:1008A00002610878704700B58FB0CDE901310021B1
:1008B000059105497944CDE9031011466846FFF7D3
:1008C000FBFC0FB000BD0000E5FFFFFF0A6802F867
:1008D000010B0A607047000000487047300000209C
:1008E00030B5B0F10A0271F100034FEA900E4EEA02
:1008F000817EB0EB0E0061EB91014FEA101E4EEAD3
:10090000017E10EB0E0041EB11114FEA102E4EEA62
:10091000016E10EB0E0041EB11214FEA104E4EEA32
:10092000014E10EB0E0041EB1141401841F1000166
:100930004FEAD00040EA41704FEAD1014FEA81040A
:1009400044EA907410EB800544EB01046D1944EB0C
:100950000404521BA3414FF0000348BF0A3200D5E4
:1009600030BD401C41F1000130BD00002DE9F041D7
:100970001F46044603260168072A01F4006004DBD1
:1009800008B116A505E016A503E008B115A500E01D
:1009900015A521F010002060A069C01EA0610FB154
:1009A000401EA0612046AFF300804FB1D4E9012181
:1009B00038469047206A401C2062C01C206206E036
:1009C000206AFAE7D4E9012115F8010B9047761E59
:1009D000F8D22046AFF30080BDE8F0814E414E00D2
:1009E0006E616E00494E4600696E66002DE9F04763
:1009F000814616468AB0354878440DC88DE80D000A
:100A000032487844801C03AC0DC884E80D0041F6E0
:100A10009B300844372190FBF1F290FBF1F5A5F1F2
:100A2000800501FB12041B3C02D56442012000E05A
:100A30000020DFF898A080460027FA44AAF1BE0AF9
:100A40000EE0E0070AD03246684607EB4701012373
:100A50000AEB810101F089FE8DE8070064107F1C1C
:100A6000002CEED1194F7F44AE3F19E0E80715D0B6
:100A700007EB04100DF1180A90E80E008AE80E004A
:100A8000C068F04201D1981908903246012306A9A6
:100A900003A801F06AFE03AB83E807006D10641C35
:100AA000002DE3D14FF0010332466946B8F1000F43
:100AB00003A802D001F044FE01E001F056FEC9E9AE
:100AC0000001C9F808200AB0BDE8F087C020000086
:100AD00000487047100000207546FFF7F9FFAE464A
:100AE00005006946534620F00700854618B020B53A
:100AF000FFF77EFBBDE820404FF000064FF00007F7
:100B00004FF000084FF0000BAC46ACE8C009ACE871
:100B1000C009ACE8C009ACE8C00921F007018D4666
:100B2000704710B50446AFF300802046BDE8104082
:100B3000FFF749BB4FF0013C50F8042B51F8043B40
:100B40009A4221D1A2EB0C03934313EACC1317D1A1
:100B500050F8042B51F8043B9A4215D1A2EB0C0338
:100B6000934313EACC130BD150F8042B51F8043BF8
:100B70009A4209D1A2EB0C03934313EACC13DBD0C6
:100B80004FF00000704700BFD01A01BAB1FA81F1EE
:100B900001F0180122FA01F0CB40DBB2C0B2C01A5A
:100BA000C1F120012CFA01F3D11A914311EAC311CA
:100BB000E6D1704701491820ABBEFEE726000200CF
:100BC00070470000FEE7000070470000014690F803
:100BD0002100022816D10868D1E90FC3026822F06B
:100BE0000E020260026822F001020260012000FA97
:100BF00003F2CCF8042081F821000020002281F8C3
:100C000020207047042088630120002281F82020E2
:100C10007047000090F82110022923D1026840F2A9
:100C2000040C1168C4F2020C21F00E01116013686B
:100C30002F21C4F202018A4223F00103136015DD63
:100C40003023C4F202039A421CD04423C4F20203AC
:100C50009A421BD05823C4F202039A421CD14FF48B
:100C6000803321E004218163012070470823C4F20E
:100C700002039A420ED01C23C4F202039A420BD103
:100C8000102311E04FF480730EE000BF4FF4805347
:100C90000AE000BF012307E00CF168014FF0807308
:100CA0008A4208BF4FF480130121CCF8003080F84D
:100CB0002110416B0022002980F8202004BF002071
:100CC000704780B58847002080BD0000B0B504465D
:100CD00000F01EF9054640F20000C2F20000007864
:100CE000611C18BF044400BF00F012F9401BA04271
:100CF000FAD3B0BD2DE9F04F82B00E68002E00F09F
:100D0000FD8041F20042C4F20102042340F2004E91
:100D1000904208BF03234FF6FF7CC4F2010E0093FC
:100D200000240123C1F2100C4FF0000A4FF000091B
:100D30004BE000BF41F20002C4F20102009F90426A
:100D400008BF022704F00C030F229A402BEA02028C
:100D500007FA03F34FEA9A051A4346F825204E682E
:100D600040F20C45F202DEF8082054BF22EA0802E5
:100D700042EA0802C4F20105CEF808202A68B3024C
:100D800054BF22EA080242EA08022A60B303DEF8EE
:100D9000042054BF22EA080242EA0802F303CEF814
:100DA0000420DEF800204FF0010354BF22EA0802BD
:100DB00042EA0802CEF800200E680AF1010A36FA6B
:100DC0000AF204F1040400F0998003FA0AFB16EA1F
:100DD0000B08F1D04E68664512DC122E56D8DFE8BB
:100DE00006F0350B4D4955555555555555555555E5
:100DF00055555545510000BFD1F80C9046E000BF55
:100E00004FF6FF72C1F2210296420FDC0022C1F2BE
:100E1000110296421AD00022C1F21202964215D057
:100E20000022C1F22102964210D02FE00022C1F22E
:100E3000220296420AD00022C1F23102964205D027
:100E40000022C1F23202964220D100BF8A684AB124
:100E5000012A14BFC0F814B0C0F810B04FF0080950
:100E600014E000BF4FF0040910E000BFCA6802F1AF
:100E700004090BE04FF0000908E000BFCA6802F166
:100E8000080903E0CA6802F10C0900BF02462646C1
:100E9000B8F5807F24BF0432203E17680F25B54087
:100EA00027EA050509FA06F635431560CA79D20620
:100EB0007FF582AF41F21803C4F202031A68AEF55F
:100EC0007E7642F001021A601A6802F00102019275
:100ED000019A2AF0030256F802B040F60002C4F26A
:100EE0000102904208D040F60042C4F20102904252
:100EF0007FF420AF012725E7002723E702B0BDE8F4
:100F0000F08F0000002A08BF09040161704700004B
:100F100040F2BC00C2F200000068704740F20000DE
:100F200040F2BC01C2F20000C2F2000100780A687F
:100F3000104408607047000080B542F20000C4F21F
:100F40000200016841F010010160032000F08CF8FC
:100F50000F2000F005F800F027F8002080BD000009
:100F600070B540F20006C2F2000640F20801327885
:100F7000C2F200014FF47A730968B3FBF2F204463F
:100F8000B1FBF2F1084600F085FB0F2C4FF0010594
:100F900008D838B94FF0FF3021460022002500F074
:100FA00037F87460284670BD82B041F21800C4F270
:100FB00002000168022241F001010160016801F0B4
:100FC000010101910199416841F0805141604068FF
:100FD00000F08050009000980420C4F201000168E5
:100FE00062F31A61016002B070470000002848BF38
:100FF000704700F01F01012202FA01F11C2202EAEF
:10100000D0004EF20012CEF2000281507047000074
:1010100010B54EF60C5CCEF2000CDCF80030C3F3D9
:10102000022E8EF00704042C28BF0424BEF1030313
:101030004FF0FF3E0EFA04F438BF0023A14399405D
:101040000EFA03F39A43114300F00F0200F16043DC
:101050000901043A03F564436244002848BF02F1E1
:101060000C03197010BD00004EF60C51CEF20001B9
:101070000A684FF6FF031A4060F30A2242F08060CC
:1010800040F0FD7008607047002804BF01207047E1
:101090002DE9F04381B042F20008C4F20208044690
:1010A000D8F800000D4600F0070088420CD2D8F8AE
:1010B000000020F007002843C8F80000D8F800001E
:1010C00000F00700A8426CD1206841F204098107B2
:1010D000C4F2020917D5410705D5D9F8001041F42B
:1010E000E061C9F80010010705D5D9F8001041F4F6
:1010F0006051C9F80010D9F80010A26821F0F00181
:101100001143C9F80010C00742D1D8F8000000F020
:101110000700A8420CD9D8F8000020F007002843A7
:10112000C8F80000D8F8000000F00700A84238D145
:101130002068410707D5D9F80010E26821F4E06182
:101140001143C9F80010000708D5D9F8000021693B
:1011500020F4605040EAC100C9F80000D9F800202E
:1011600002F00C00082841F20020C0F27A004DD1B4
:1011700042F6EE23C2F38341C0F60003595CD2036A
:1011800038D440F60010C0F23D0048433EE000BFB6
:10119000606859F8041C022808D0012826D1890368
:1011A00006D4012001B0BDE8F08300BF8901F8D565
:1011B000D9F8001021F003010843C9F80000FFF737
:1011C000A7FE064641F28837D9F80000616800F0B2
:1011D0000C00B0EB810F98D0FFF79AFE801BB8424D
:1011E000F2D9032001B0BDE8F08300BF8907D8D54C
:1011F000DEE700BFD9F8002042F6EC23C2F34042FC
:10120000C0F600039A5C4843B0FBF2F0D9F8001036
:1012100042F6D422C1F30311C0F60002515C40F241
:10122000080220FA01F140F20400C2F20000006856
:10123000C2F200021160FFF793FE002001B0BDE88A
:10124000F083000040F2080041F20401C2F2000005
:10125000C4F202010068096842F6E422C1F30221E7
:10126000C0F60002515CC8407047000040F2080020
:1012700041F20401C2F20000C4F2020100680968F0
:1012800042F6E422C1F3C221C0F60002515CC8401C
:1012900070470000002804BF012070472DE9F0418D
:1012A00082B00446007841F20006C007C4F202068C
:1012B0000CD0706800F00C00042840F08180306889
:1012C000800303D56068002800F0468120788007FD
:1012D0001BD5706810F00C0F09D0706800F00C007E
:1012E000082840F087807068C00300F18380306870
:1012F000800703D52069012840F02E81306861699C
:1013000020F0F80040EAC10030602078000713D4D4
:10131000207840072CD4E569002D00F01881706812
:1013200000F00C00082840F0A780012D40F0048157
:10133000012002B0BDE8F081A069002800F084809F
:101340000020C4F242200121C0F88014FFF7E0FD24
:10135000054600BF706A800700F1B280FFF7D8FD34
:10136000401B0228F6D9032002B0BDE8F08100BF7F
:10137000F0695FEAC00808D4F06940F08050F0617D
:10138000F06900F080500090009847F20007C4F226
:1013900000073868C00549D4386840F48070386068
:1013A000FFF7B6FD054600BF3868C0053ED4FFF71D
:1013B000AFFD401B6428F7D9032002B0BDE8F081DF
:1013C000706800F00C00082803D17068C0033FF576
:1013D00076AF61683068002900F00C81B1F5A02F6C
:1013E00000F00081B1F5803F40F01A8140F4803078
:1013F0001CE100BF2069002840F20000C4F2422036
:1014000000F0888001210160FFF782FD054600BFE2
:10141000306880073FF572AFFFF77AFD401B022866
:10142000F6D9032002B0BDE8F08100BFE168306A60
:10143000002900F09D80052900F09280012940F0EC
:10144000AF8040F00100B1E00020C4F24220002152
:10145000C0F88014FFF75CFD054600BF706A800786
:101460007FF556AFFFF754FD401B0228F6D9032045
:1014700002B0BDE8F08100BF0027C4F2422700207F
:101480003866FFF745FD022D05460DD13068800115
:1014900040F1DE80FFF73CFD401B02284FF00300C7
:1014A000F4D902B0BDE8F081306880014FD5FFF774
:1014B0002FFD401B02284FF00300F5D9F1E700BFD4
:1014C00040F20800C2F20000006844F6D351C1F2B5
:1014D0006201A0FB0101480A019000BF00BF019812
:1014E000411E002801913FF413AF00BF0198411E37
:1014F000002801913FF40CAF00BF0198411E002865
:1015000001913FF405AF00BF0198411E00280191F1
:10151000E4D1FDE600210160FFF7FAFC054600BFBB
:10152000306880077FF5F1AEFFF7F2FC401B022820
:101530004FF00300F4D9B4E77068216A00F48032F8
:101540008A4209D1616A00F47010884204D10020F7
:1015500002B0BDE8F08100BF012002B0BDE8F0811B
:1015600040F004003062306A40F001001EE000BF2D
:1015700020F001003062306A20F004003062FFF792
:10158000C7FC054641F28837306A800720D5FFF74F
:10159000BFFC401BB8424FF00300F5D981E700BF04
:1015A00020F001003062306A20F004003062FFF762
:1015B000AFFC054641F28837306A800708D4FFF750
:1015C000A7FC401BB842F7D9032002B0BDE8F08168
:1015D000B8F1000F3FF59FAEF06920F08050F06148
:1015E00099E600BF40F480203060306840F48030DD
:1015F0001CE000BF20F480303060306820F4802090
:101600003060FFF785FC0546306880037FF55EAEED
:10161000FFF77EFC401B64284FF00300F4D940E73D
:1016200020F480303060306820F480203060FFF794
:101630006FFC0546306880033FF548AEFFF768FC55
:10164000401B6428F6D9032002B0BDE8F08100BF3A
:10165000206AB0F5803F05D17168A26821F400319D
:10166000114371607168626A21F474111143084377
:10167000706001203866FFF74BFC0446306880013B
:101680003FF565AFFFF744FC001B02284FF0030055
:10169000F4D906E7411E0020B0EB116F1CBF0120FA
:1016A00070474EF21002CEF2000251604EF6235106
:1016B000CEF20001F0230B7007219060116070479B
:1016C0007047000070470000B0B582B001680A683A
:1016D000CC684B6902F02F05202D04F0200505D1C0
:1016E00025B102B0BDE8B04000F086BC5FEA027CE4
:1016F0001EBF03F0010E04F4907313EB0E0341D1EF
:10170000036BD50618D5012B16D114F0100313D096
:10171000002201920A6801924A680192019A49697D
:1017200049064BD4818DC28DC38D002B18BF9142C9
:1017300040F0F48102B0B0BD13062DD514F0800343
:101740002AD090F84120212AF4D18268B2F5805F36
:1017500003D10269002A00F06782026A531C036207
:1017600012784A60C28C013A1304C284E2D1C8687C
:1017700020F08000C860C86840F04000C86002B037
:10178000B0BD00BFD30718BF14F4807340F0D08001
:10179000530700F1D380D8E05206CBD514F04002B5
:1017A000C8D0CA6822F04002CA60202180F84110E7
:1017B00002B0BDE8B04000F009BC00BFC16B0A68D0
:1017C000526893B2002BB5D0858DAB42B2D2C285A0
:1017D0008969202900F0A180016851E8031F02688F
:1017E00021F4807142E80313DBB1016851E8031F63
:1017F000026821F4807142E8031393B1016851E853
:10180000031F026821F4807142E803134BB10168A1
:1018100051E8031F026821F4807142E80313002B92
:10182000DAD1016851E8051F026821F0010142E8A0
:101830000513C3B3016851E8051F026821F00101D7
:1018400042E805137BB3016851E8051F026821F0E7
:10185000010142E8051333B3016851E8051F02682E
:1018600021F0010142E80513002BDAD11BE000BF93
:10187000016851E8051F026821F0400142E80513A4
:10188000DBB1016851E8051F026821F0400142E820
:10189000051393B1016851E8051F026821F040016A
:1018A00042E805134BB1016851E8051F026821F0B9
:1018B000400142E80513002BDAD1202180F84210C4
:1018C00000210163016851E8031F026821F0100143
:1018D00042E80313DBB1016851E8031F026821F0FD
:1018E000100142E8031393B1016851E8031F026835
:1018F00021F0100142E803134BB1016851E8031FC6
:10190000026821F0100142E80313002BDAD1C16B09
:1019100004460846FFF75AF9204602214163818DAB
:10192000C28D891A89B202B0BDE8B040FFF7C8BEC7
:10193000436C43F001034364530706D5BEF1000F27
:1019400003D0436C43F002034364930706D5BEF112
:10195000000F03D0436C43F004034364BCF1000F59
:1019600006D55EEA050303D0436C43F008034364E5
:10197000436C002B3FF4DEAE920605D525B104463C
:1019800000F03AFB216820464969426C01F04001B1
:1019900002F00802891800F0B98000BF016851E820
:1019A000031F026821F4907142E80313BBB301687E
:1019B00051E8031F026821F4907142E8031373B3E6
:1019C000016851E8031F026821F4907142E8031393
:1019D0002BB3016851E8031F026821F4907142E8BB
:1019E0000313002BDAD11AE0016851E8051F0268E1
:1019F00021F0010142E80513DBB1016851E8051F40
:101A0000026821F0010142E8051393B1016851E831
:101A1000051F026821F0010142E805134BB101687E
:101A200051E8051F026821F0010142E80513002B6F
:101A3000DAD1016B012924D1016851E8031F026842
:101A400021F0100142E80313DBB1016851E8031FE4
:101A5000026821F0100142E8031393B1016851E8D4
:101A6000031F026821F0100142E803134BB1016823
:101A700051E8031F026821F0100142E80313002B14
:101A8000DAD1202180F84210002101630168496900
:101A9000490640F1C380016851E8051F026821F042
:101AA000400142E80513DBB1016851E8051F0268F7
:101AB00021F0400142E8051393B1016851E8051F88
:101AC000026821F0400142E805134BB1016851E87A
:101AD000051F026821F0400142E80513002BDAD10E
:101AE000C16B002900F09A8041F6ED72C0F6000249
:101AF000044608464A63FFF78DF800283FF41AAE03
:101B0000E06B416B02B0BDE8B04008470446FFF708
:101B1000D9FD0020606402B0B0BD00BF891A00BFCB
:101B2000026852E8032F036822F4907243E8032509
:101B3000BDB3026852E8032F036822F4907243E8B1
:101B4000032575B3026852E8032F036822F49072EC
:101B500043E803252DB3026852E8032F036822F4FB
:101B6000907243E80325002DDAD11AE0026852E8AA
:101B7000052F036822F0010243E80525DDB1026864
:101B800052E8052F036822F0010243E8052595B1CC
:101B9000026852E8052F036822F0010243E8052598
:101BA0004DB1026852E8052F036822F0010243E8B4
:101BB0000525002DDAD1202280F842200022026380
:101BC000026852E8032F036822F0100243E803255D
:101BD000DDB1026852E8032F036822F0100243E8E7
:101BE000032595B1026852E8032F036822F0100222
:101BF00043E803254DB1026852E8032F036822F041
:101C0000100243E80325002DDAD1022289B2426393
:101C100002B0BDE8B040FFF753BD00BF02B0BDE861
:101C2000B040FFF74FBD00BF026A32F8023B6FF3CE
:101C30005F234B60026295E5002804BF01207047D6
:101C400010B5044690F8410028B9002084F84000FF
:101C5000204600F063F8242084F841002068D4E98D
:101C60000212C36823F40053C360036923F4405392
:101C70001A430261D4E904231143C268194341F2B3
:101C80000C639A431143C1604169A26921F4407118
:101C9000114343F60002C4F201029042416103D0B5
:101CA000FFF7D0FA02E000BFFFF7E0FAD4E9002323
:101CB000192148439900B0FBF1F048F21F5CC5F2CE
:101CC000EB1CA0FB0C314FF69C734909C0F6FF7367
:101CD00001FB0300322303EB0010A0FB0C03F020F8
:101CE00000EA531000EB0110C3F343110844906065
:101CF0001069202120F490401061506920F02A00E2
:101D00005061D06840F40050D0600020606484F8D6
:101D1000411084F84210606310BD000070B586B0B9
:101D200040F60004C4F20104006804F540510026A6
:101D300088420596CDE90366029601D006B070BDD3
:101D400041F21800C4F20200016802AD41F4804182
:101D50000160016801F4804101910199016841F03D
:101D6000040101600068294600F004000190019818
:101D70004FF400700290022003900320059020464B
:101D8000FEF7B8FF4FF48060CDE9020620462946F1
:101D90000496FEF7AFFF252001210022FFF738F956
:101DA0002520FFF723F906B070BD000090F84230FF
:101DB000202B07D100294FF0010318BF002A05D1BD
:101DC0001846704702231846704700BF002303637C
:101DD000816222218285C285436480F842100169B4
:101DE000006819B1C16841F48071C160416941F076
:101DF00001014161C16841F02001C160184670478E
:101E000010B540F27004C2F200042078612803D0BB
:101E100062280AD1002200E0012241F20000C4F24F
:101E200001004FF40051FFF76DF8201D21460122FB
:101E3000BDE81040FFF7BABF2DE9F04381B004467A
:101E400090F84100202809D100294FF0010018BF67
:101E5000002A07D101B0BDE8F08300BF022001B025
:101E6000BDE8F0830020606421201D460E4684F802
:101E700041001746FFF74CF8A784E784A168814624
:101E8000B1F5805F02D1206900285DD0374600207F
:101E9000E28C2168002A5DD06A1C24D0002D4AD033
:101EA000804600BF0868000608D4FFF731F8A0EBB1
:101EB0000900A8427AD82168C868F3E717B117F873
:101EC000010B04E038F8020B00276FF35F20486035
:101ED000E08C0138E084E08C0028E3D13AE000BFD8
:101EE0000A68120609D40A68120606D40A6812069D
:101EF0005CBF0A685FEA0262F2D51FB117F8012BD6
:101F000005E000BF30F8022B00276FF35F224A6024
:101F1000E28C013AE284E28C002AE4D11AE000BFAC
:101F200030F8022B00276FF35F224A60E28C013AFF
:101F3000E284E28C72B10A68120635D5002FEFD028
:101F400017F8012BF1E700BF00273046E28C21682B
:101F5000002AA1D1086840061ED42DB3681C14D1F4
:101F6000086840062AD40868400627D40868400656
:101F700024D4086840064FF00000F1D50DE000BF02
:101F80002068C1680068400618D4FEF7C1FFA0EBC6
:101F90000900A842F4D909E00020202184F841106A
:101FA00001B0BDE8F08300BFFEF7B2FF032020219F
:101FB00084F8411001B0BDE8F08300BF002020216B
:101FC00084F8411001B0BDE8F083000070470000C4
:101FD000FEE70000FEE70000FEE70000704700009B
:101FE00070470000FEF79ABF70470000406A00216A
:101FF000C185C184FFF766BB81B090F842102229E9
:1020000021D183680246B3F5805F09D152F8281FB9
:1020100052F8183C002B63D003685B680AE000BFED
:1020200052F8281F13B90369002BF5D003685B68C9
:1020300003F07F030B70116801311160C18D01390C
:102040000A04C18502D001B0704700BF0168CA68A8
:1020500022F02002CA60CA6822F48072CA604A690B
:1020600022F001024A61202180F8421000214163E0
:10207000026B012A3CD10163016851E8031F026829
:1020800021F0100142E80313DBB1016851E8031F9E
:10209000026821F0100142E8031393B1016851E88E
:1020A000031F026821F0100142E803134BB10168DD
:1020B00051E8031F026821F0100142E80313002BCE
:1020C000DAD101680A68D20606D5002200920A68B1
:1020D0000092496800910099818D01B0FFF7F0BA34
:1020E000026852686FF35F2221F8022B8162A5E734
:1020F00001B0FFF785BE000040F27400C2F200009C
:10210000FFF7E2BAFEE7000094B0FEF715FF0024E7
:102110000120CDE90744CDE9054406901020079041
:102120004FF4601002250B9002A8CDE903440295FC
:10213000CDE90954FFF7AEF820B1EFF3108072B685
:10214000FEE700BF0F20CDE90F054FF48060CDE919
:1021500012040FA802211194FEF796FF20B1EFF3AD
:10216000108072B6FEE700BF002541F21800CDE9ED
:102170000455CDE90255C4F20200016841F20004A1
:1021800041F0100101600168C4F2010401F0100186
:102190000F910F990168002241F00401016000686D
:1021A0004FF4005100F004000F900F9820464FF4B8
:1021B0000056FEF7A7FE0120CDE903050220059099
:1021C00002A920460296FEF795FD40F27007C2F282
:1021D000000704F52051384640F8041F4FF4E13160
:1021E0000C22C0E90115C0E90355C0E90525C56108
:1021F000FFF722FD20B1EFF3108072B6FEE700BFBB
:102200004CF200064FF050080CA402ADC4F2430695
:10221000043700BF2846214600223346CDF800800F
:10222000FDF7F8FF82B2384629464FF49673FFF760
:1022300003FE4FF47A70FEF749FDEBE724252E32BA
:10224000662C2025640A00005FEA400C08BF91F06C
:10225000000F4FEA8C234FEAC12243EA51514FEA63
:102260001C5018BF00F5F0404FEA300018BF41F095
:1022700000415FEA6C5C00F02980BCF1FF3F08BFC1
:1022800040F080407047130C06BF12044FF0100C52
:102290004FF0000C130E04BF12020CF1080C130FC8
:1022A00004BF12010CF1040C930F04BF92000CF157
:1022B000020CD30F04BF52000CF1010C11464FF079
:1022C0000002A0F11F00A0EB0C00704711F0004FBE
:1022D00008BF704731F000413FF4D5AF0B0C06BF8B
:1022E00009044FF0100C4FF0000C0B0E04BF090254
:1022F0000CF1080C0B0F04BF09010CF1040C8B0F3F
:1023000004BF89000CF1020CCB0F04BF49000CF193
:10231000010CCCF1200322FA03F341EA030102FA93
:102320000CF2A0EB0C0000F10100704723F07F4796
:1023300020F07F4C80EA030000F00040ACEB070384
:1023400003F57C5303F1FF032DE9804909B44FEAFB
:10235000144324EA03484FEA154B25EA0B4E0FF2CB
:10236000042606EB13273E7803FB0667C7F5000734
:1023700007FB06F64FEAD64606F102064FEA543747
:1023800007FB066CCCF1005C4FEA1C472CEA074CBB
:102390000CFB06F507FB06F404EB15464FEA961610
:1023A00049085FEA320234BF00204FF000404FEA94
:1023B000D13706FB07FC4FEA1C4C0CFB0BF7D21B7A
:1023C00003FB0CF761EB07010CFB0EF7B0EB0740CA
:1023D00072EB17420CFB08F734BFA2EB0742B2EBDB
:1023E000074261EB17414FEA0C444FEA910706FBA5
:1023F00007FC4FEA1C4C0CFB0BF7B0EBC74072EB31
:10240000573203FB0CF734BFA2EBC742B2EBC74213
:1024100061EB57310CFB0EF7B0EBC70072EB577254
:102420000CFB08F734BFA2EBC702B2EBC70261EBAB
:1024300057714FEA816141EA92114FEA826242EAA2
:1024400090124FEA806004EBCC04039F4FEAD1372F
:1024500006FB07FC4FEA1C4C0CFB0BF7D21B03FBE3
:102460000CF761EB07010CFB0EF7B0EB074072EBCA
:1024700017420CFB08F734BFA2EB0742B2EB07424E
:1024800061EB17414FEA8C5504EB9C244FEA91070E
:1024900006FB07FC4FEA1C4C0CFB0BF7B0EBC740EC
:1024A00072EB573203FB0CF734BFA2EBC742B2EB1F
:1024B000C74261EB57310CFB0EF7B0EBC70072EB74
:1024C00057720CFB08F734BFA2EBC702B2EBC7028E
:1024D00061EB57714FEA816141EA92114FEA8262E2
:1024E00042EA90124FEA806015EB4C2544F100045B
:1024F0004FEAD13706FB07FC4FEA1C4C0CFB0BF7ED
:10250000D21B03FB0CF761EB07010CFB0EF7B0EBE2
:10251000074072EB17420CFB08F734BFA2EB0742EF
:10252000B2EB074261EB17414FEA813141EA924138
:102530004FEA823242EA90424FEA80304FEA0C760C
:1025400015EB1C1544F1000448EA03434EEA0B481E
:102550004FF0000EB2EB080C71EB030724BF62468C
:1025600039464EEB0E0E4FF0000B00185241494118
:102570004BEB0B0BB2EB080C71EB03077BF1000B81
:1025800024BF624639464EEB0E0E4FF0000B00188A
:10259000524149414BEB0B0BB2EB080C71EB0307BB
:1025A0007BF1000B24BF624639464EEB0E0E51EA1A
:1025B000020718BF46F0010616EB0E7655F1000231
:1025C00054F1000103D5BDE88901BDE80088BDE8EC
:1025D0008901BDE80048B619524141EB0101A3F160
:1025E0000103704780807F7E7D7C7B7A7978777667
:1025F00076757473727171706F6E6E6D6C6C6B6AE0
:102600006A6968686766666564646363626161607D
:10261000605F5F5E5E5D5D5C5C5B5B5A5A595958FA
:102620005857575656555555545453535252525164
:10263000515050504F4F4F4E4E4D4D4D4C4C4C4BBA
:102640004B4B4A4A4A494949484848474747474601
:10265000464645454544444444434343434242423D
:10266000424141419C46002B30D477002BD04FEAA9
:1026700037071CB503B44FF010004FF01001BAF14A
:10268000000F06D0BCF1000FDCBF40F0080040F0A6
:1026900008014FF000000FBCBDE810400BF1010B2A
:1026A000BBF1010F08BF5FEA170722BF12F1010259
:1026B00011F101014FF0004143F1000300F000402F
:1026C00043EA00007047F9D35708D0E746EA0646C8
:1026D0004FEA164613F1400F1FDD13F1200FDFBF45
:1026E00016430A46002120335B42BED0C3F12007C7
:1026F00046EA06464FEA164602FA07F746EA070692
:1027000022FA03F2C3F1200701FA07F742EA0702AF
:1027100021FA03F14FF00003A7E746EA020646EA72
:1027200006464FEA164646EA0106BCBF46EA06469A
:10273000360C4FF000034FF000024FF0000194E719
:102740002DE9804C70B49A46934691E8380007C84A
:1027500031EA400C48BF34EA430C03D5FFF7E6FDED
:10276000FFF780FFF0BCBDE8008C2DE9804C70B411
:102770009A46934691E8380007C810F0804F08BF8A
:1027800013F0804F03D100F005F8FFF76BFFF0BCAA
:10279000BDE8008C20F07F4723F07F4C80EA0300E7
:1027A00000F0004007EB0C03A3F57C53A3F1FE03FC
:1027B00092F0000F00F0B38095F0000F00F07780EA
:1027C0002DE901494FEA114021EA00484FEA144639
:1027D00024EA064700FB06FC08FB06F607FB08F8A0
:1027E00018EB06484CEB164C00FB07F718EB0748B4
:1027F0004CEB17404FEA124B22EA0B4E4FEA1546BC
:1028000025EA06470BFB06FC0EFB06F607FB0EFE51
:102810001EEB064E4CEB164C0BFB07F71EEB074E60
:102820004CEB174B18EB0B0840F1000018EB0E0BAC
:1028300058EB000840F100008F1A4FF000014FF0F4
:1028400000063CBFC943661B14BFB5EB040C002156
:102850003CBFC943F61B4FEA174427EA04454FEA39
:102860001C472CEA074C04FB076205FB07F70CFB2F
:1028700005F616EB074642EB174204FB0CFC16EB81
:102880000C4642EB1C421BEB060658EB0202414190
:102890004EEA8E0E46EA9E0601D5BDE80189B619BC
:1028A000524141EB0101A3F10103BDE801894FEA67
:1028B000144524EA05464FEA114721EA074C05FB77
:1028C00007F406FB07F70CFB06F111EB074144EB9D
:1028D000174405FB0CFC11EB0C4144EB1C444FEA84
:1028E000124722EA074C05FB07F206FB07F70CFB31
:1028F00006F616EB074642EB174205FB0CFC16EBFF
:102900000C4642EB1C456A1854F1000148BF704761
:10291000B619524141EB0101A3F10103704795F053
:10292000000F37D04FEA114221EA02464FEA14471E
:1029300024EA074C02FB07F106FB07F70CFB06F441
:1029400014EB074441EB174102FB0CFC14EB0C4465
:1029500041EB1C414FEA154725EA074C02FB07F5FE
:1029600006FB07F70CFB06F616EB074645EB17458B
:1029700002FB0CFC16EB0C4645EB1C42121951F104
:10298000000148BF7047B619524141EB0101A3F164
:10299000010370474FEA144524EA05464FEA114700
:1029A00021EA074C05FB07F106FB07F70CFB06F2D3
:1029B00012EB074241EB174105FB0CFC12EB0C42FA
:1029C00051EB1C414FF0000648BF7047921841EB95
:1029D0000101A3F101037047490050EAC12018BF6B
:1029E00004204A0D18BF40F0010040F2FF72B2EB24
:1029F000515F08BF40F00200012808BF0520704762
:102A000030380A2801D201207047002070470000AA
:102A100010B500290AD00878002807D00548784466
:102A2000FEF788F8002801D0002010BD0248784445
:102A300010BD000002010000FA000000FDF7F7BD24
:102A400002400000000000A000000000054000005F
:102A5000000000C8000000000C4000000000409C86
:102A600000000000194000000020BCBE0000000073
:102A700034400000BFC91B8E00000004B5400000B8
:102A8000504BCFD06607E2CF010000006C41000040
:102A90003E8251AADFEEA73401000000D9420000B7
:102AA000DCB5A0E23A301F97FFFFFFFFB4450000FE
:102AB000FD25A0C8E9A3C14FFFFFFFFFFF3F0000B6
:102AC0000000008000000000FF3F000000000080C8
:102AD00000000000000000000000000001020304EC
:102AE00006070809000000000102030401020203B6
:102AF0000405060708090A0B0C0D0E0F1010000044
:102B0000402B0008000000201000000050010008C9
:102B1000502B000810000020B006000070010008D3
:102B20001C00000043000000F8FFFFFF0C00000045
:102B30000E0000000F0000002E000000000000004A
:102B4000010000001000000000127A0000000000E8
:04000005080000ED02
:00000001FF
