:020000040800F2
:100000006006002099010008A1010008A301000872
:10001000A5010008A7010008A901000800000000D0
:10002000000000000000000000000000AB0100081C
:10003000AD01000800000000AF010008B101000898
:10004000B3010008B3010008B3010008B3010008C0
:10005000B3010008B3010008B3010008B3010008B0
:10006000B3010008B3010008B3010008B3010008A0
:10007000B3010008B3010008B3010008B301000890
:10008000B3010008B3010008B3010008B301000880
:10009000B3010008B3010008B3010008B301000870
:1000A000B3010008B3010008B3010008B301000860
:1000B000B3010008B3010008B3010008B301000850
:1000C000B3010008B3010008B3010008B301000840
:1000D000B3010008B3010008B3010008B301000830
:1000E000B3010008B3010008B301000800F002F8F2
:1000F00000F042F814A696E8000CB244B344DA4586
:1001000001D100F039F8BAE80F000FA696E83000E8
:10011000A5EB040504EB0607AAEB0704A7F101070A
:100120004FEA15154FEA3414A4F10104AC4201D38F
:1001300000F022F813F0010F18BFFB1A43F001037F
:1001400000F001F8DBE718471C0300002C03000057
:10015000704700000023002400250026103A28BF25
:1001600078C1FBD8520728BF30C148BF0B60704729
:100170001FB51FBD10B510BD00F031F81146FFF7D7
:10018000F7FF00F02BF900F04FF803B4FFF7F2FF90
:1001900003BC00F057F800000948804709480047B1
:1001A000FEE7FEE7FEE7FEE7FEE7FEE7FEE7FEE727
:1001B000FEE7FEE704480549054A064B7047000084
:1001C000F9020008ED000008600000206006002031
:1001D000600200206002002070477047704775463B
:1001E00000F02CF8AE4605006946534620F00700A3
:1001F000854618B020B5FFF7DDFFBDE820404FF081
:1002000000064FF000074FF000084FF0000BAC461F
:10021000ACE8C009ACE8C009ACE8C009ACE8C0096A
:1002200021F007018D46704710B50446AFF30080FA
:100230002046BDE81040FFF7A8BF00000048704707
:100240000000002001491820ABBEFEE72600020096
:10025000704700000F292FD870B5A0F18044A4F595
:1002600084344FEAB42CBCF1060F0DD841F2180EBD
:1002700040F24844C4F2020EC0F6000454F82C5078
:10028000DEF800602E421CD023B36FF01F0606EB91
:100290008106082928BF043038BF8E000F25046866
:1002A000B54024EA0505056043EA82020368B240CE
:1002B0001A430260BDE870400020102938BF0120B9
:1002C000704754F82C60DEF800502E43CEF80060E2
:1002D000002BDAD1032A08D0022AD6D10126C5681C
:1002E0008E4025EA0606C660CFE70122C6688A402E
:1002F0003243C2600222C8E782B041F20400C4F275
:10030000020050F8041C002241F0010140F8041CD6
:100310000168CFF6FF021140016050F8041C4FF64F
:10032000FF72CFF6F662114040F8041C50F8041C2E
:1003300021F4802140F8041C016821F4FE010160D1
:100340004FF41F01416000210191009150F8041CFD
:1003500041F4803140F8041C50F8041C01F40031D1
:100360000091019901310191009919B90199B1F5F3
:10037000A06FF1D150F8041C890354BF0021012162
:1003800000910099012920D142F20001C4F202013A
:100390000A6842F010020A600A6822F007020A6046
:1003A0000A680A6001680160016801600168016013
:1003B000016821F003010160016841F00101016061
:1003C000016801F00C010429FAD14EF60850CEF272
:1003D00000004FF00061016002B0704782B041F24E
:1003E0001004C4F20104A4F110000D210022022324
:1003F0000025FFF72FFF4FF000504FF4005100BFD2
:100400000022206004E000BF0132B2F5FA7F09D07B
:10041000009500BF009BB3F5037FF5D8009B013327
:100420000093F7E70022216004E000BF0132B2F53B
:10043000FA7FE5D0019500BF019BB3F5037FF5D8A6
:10044000019B01330193F7E704000000080000005E
:1004500010000000200000004000000080000000AC
:100460000001000074040008000000206006000085
:04047000540100082B
:04000005080000ED02
:00000001FF
