:020000040800F2
:1000000008070020B50100080919000801190008B7
:1000100005190008BD0200082919000800000000A9
:10002000000000000000000000000000111900089E
:10003000C1020008000000000D1900081519000891
:10004000CF010008CF010008CF010008CF01000850
:10005000CF010008CF010008CF010008CF01000840
:10006000CF010008CF010008CF010008CF01000830
:10007000CF010008CF010008CF010008CF01000820
:10008000CF010008CF010008CF010008CF01000810
:10009000CF010008CF010008CF010008CF01000800
:1000A000CF010008CF010008CF010008CF010008F0
:1000B0001D190008CF010008CF010008CF0100087A
:1000C000CF010008CF010008CF010008CF010008D0
:1000D000CF010008CF010008CF010008CF010008C0
:1000E000CF010008CF010008CF01000800F002F89E
:1000F00000F050F814A696E8000CB244B344DA4578
:1001000001D100F047F8BAE80F000FA696E83000DA
:10011000A5EB040504EB0607AAEB0704A7F101070A
:100120004FEA15154FEA3414A4F10104AC4201D38F
:1001300000F030F813F0010F18BFFB1A43F0010371
:1001400000F001F8DBE718472C1A00004C1A0000F9
:10015000103A24BF78C878C1FAD8520724BF30C8F3
:1001600030C144BF04680C60704700007047000055
:100170000023002400250026103A28BF78C1FBD8B0
:10018000520728BF30C148BF0B6070471FB51FBD65
:1001900010B510BD00F058F81146FFF7F7FF01F059
:1001A000C5FB00F076F803B4FFF7F2FF03BC00F0E4
:1001B0007DF800000948804709480047FEE7FEE750
:1001C000FEE7FEE7FEE7FEE7FEE7FEE7FEE7FEE707
:1001D00004480549054A064B7047000019190008F4
:1001E000ED00000808010020080700200803002097
:1001F000080300204FF0000200B5134694469646CF
:10020000203922BFA0E80C50A0E80C50B1F1200129
:10021000BFF4F7AF090728BFA0E80C5048BF0CC0D7
:100220005DF804EB890028BF40F8042B08BF704735
:1002300048BF20F8022B11F0804F18BF00F8012BA7
:100240007047704770477047754600F02BF8AE4610
:1002500005006946534620F00700854618B020B5D2
:10026000FFF7B6FFBDE820404FF000064FF0000753
:100270004FF000084FF0000BAC46ACE8C009ACE80A
:10028000C009ACE8C009ACE8C00921F007018D46FF
:10029000704710B50446AFF300802046BDE810401B
:1002A000FFF781BF00487047100000200149182067
:1002B000ABBEFEE72600020070470000FEE700002C
:1002C000704700002DE9F04F82B00E68002E00F05C
:1002D000FD8041F20042C4F20102042340F2004ECC
:1002E000904208BF03234FF6FF7CC4F2010E009337
:1002F00000240123C1F2100C4FF0000A4FF0000956
:100300004BE000BF41F20002C4F20102009F9042A4
:1003100008BF022704F00C030F229A402BEA0202C6
:1003200007FA03F34FEA9A051A4346F825204E6868
:1003300040F20C45F202DEF8082054BF22EA08021F
:1003400042EA0802C4F20105CEF808202A68B30286
:1003500054BF22EA080242EA08022A60B303DEF828
:10036000042054BF22EA080242EA0802F303CEF84E
:100370000420DEF800204FF0010354BF22EA0802F7
:1003800042EA0802CEF800200E680AF1010A36FAA5
:100390000AF204F1040400F0998003FA0AFB16EA59
:1003A0000B08F1D04E68664512DC122E56D8DFE8F5
:1003B00006F0350B4D49555555555555555555551F
:1003C00055555545510000BFD1F80C9046E000BF8F
:1003D0004FF6FF72C1F2210296420FDC0022C1F2F9
:1003E000110296421AD00022C1F21202964215D092
:1003F0000022C1F22102964210D02FE00022C1F269
:10040000220296420AD00022C1F23102964205D061
:100410000022C1F23202964220D100BF8A684AB15E
:10042000012A14BFC0F814B0C0F810B04FF008098A
:1004300014E000BF4FF0040910E000BFCA6802F1E9
:1004400004090BE04FF0000908E000BFCA6802F1A0
:10045000080903E0CA6802F10C0900BF02462646FB
:10046000B8F5807F24BF0432203E17680F25B540C1
:1004700027EA050509FA06F635431560CA79D2065A
:100480007FF582AF41F21803C4F202031A68AEF599
:100490007E7642F001021A601A6802F001020192AF
:1004A000019A2AF0030256F802B040F60002C4F2A4
:1004B0000102904208D040F60042C4F2010290428C
:1004C0007FF420AF012725E7002723E702B0BDE82E
:1004D000F08F000040F20410C2F200000068704784
:1004E00040F2000040F20411C2F20000C2F200012A
:1004F00000780A68104408607047000080B542F236
:100500000000C4F20200016841F010010160032004
:1005100000F08CF80F2000F005F800F027F800201C
:1005200080BD000070B540F20006C2F2000640F245
:1005300008013278C2F200014FF47A730968B3FB04
:10054000F2F20446B1FBF2F1084600F05DFB0F2C1D
:100550004FF0010508D838B94FF0FF30214600228E
:10056000002500F037F87460284670BD82B041F273
:100570001800C4F202000168022241F0010101608A
:10058000016801F0010101910199416841F0805138
:100590004160406800F08050009000980420C4F250
:1005A0000100016862F31A61016002B07047000047
:1005B000002848BF704700F01F01012202FA01F134
:1005C0001C2202EAD0004EF20012CEF2000281504C
:1005D0007047000010B54EF60C5CCEF2000CDCF853
:1005E0000030C3F3022E8EF00704042C28BF04242D
:1005F000BEF103034FF0FF3E0EFA04F438BF0023B0
:10060000A14399400EFA03F39A43114300F00F02FD
:1006100000F160430901043A03F564436244002891
:1006200048BF02F10C03197010BD00004EF60C51CA
:10063000CEF200010A684FF6FF031A4060F30A2267
:1006400042F0806040F0FD7008607047002804BFF1
:10065000012070472DE9F04381B042F20008C4F256
:1006600002080446D8F800000D4600F00700884252
:100670000CD2D8F8000020F007002843C8F800008A
:10068000D8F8000000F00700A8426CD1206841F2C1
:1006900004098107C4F2020917D5410705D5D9F825
:1006A000001041F4E061C9F80010010705D5D9F840
:1006B000001041F46051C9F80010D9F80010A26888
:1006C00021F0F0011143C9F80010C00742D1D8F859
:1006D000000000F00700A8420CD9D8F8000020F074
:1006E00007002843C8F80000D8F8000000F0070011
:1006F000A84238D12068410707D5D9F80010E26830
:1007000021F4E0611143C9F80010000708D5D9F8B9
:100710000000216920F4605040EAC100C9F80000DF
:10072000D9F8002002F00C00082841F20020C0F2A5
:100730007A004DD141F66433C2F38341C0F6000321
:10074000595CD20338D440F60010C0F23D00484353
:100750003EE000BF606859F8041C022808D0012858
:1007600026D1890306D4012001B0BDE8F08300BF83
:100770008901F8D5D9F8001021F003010843C9F820
:100780000000FFF7A7FE064641F28837D9F80000BF
:10079000616800F00C00B0EB810F98D0FFF79AFE73
:1007A000801BB842F2D9032001B0BDE8F08300BF3E
:1007B0008907D8D5DEE700BFD9F8002041F63033ED
:1007C000C2F34042C0F600039A5C4843B0FBF2F02B
:1007D000D9F8001041F62032C1F30311C0F600022F
:1007E000515C40F2080220FA01F140F20400C2F22A
:1007F00000000068C2F200021160FFF793FE0020C3
:1008000001B0BDE8F0830000002804BF012070475C
:100810002DE9F04182B00446007841F20006C0079D
:10082000C4F202060CD0706800F00C00042840F0FE
:1008300081803068800303D56068002800F046811D
:10084000207880071BD5706810F00C0F09D07068F5
:1008500000F00C00082840F087807068C00300F1A9
:1008600083803068800703D52069012840F02E81FD
:100870003068616920F0F80040EAC10030602078FB
:10088000000713D4207840072CD4E569002D00F030
:100890001881706800F00C00082840F0A780012D36
:1008A00040F00481012002B0BDE8F081A069002879
:1008B00000F084800020C4F242200121C0F880149E
:1008C000FFF708FE054600BF706A800700F1B2809E
:1008D000FFF700FE401B0228F6D9032002B0BDE856
:1008E000F08100BFF0695FEAC00808D4F06940F009
:1008F0008050F061F06900F080500090009847F25D
:100900000007C4F200073868C00549D4386840F4CD
:1009100080703860FFF7DEFD054600BF3868C0050F
:100920003ED4FFF7D7FD401B6428F7D9032002B05F
:10093000BDE8F081706800F00C00082803D17068F1
:10094000C0033FF576AF61683068002900F00C8184
:10095000B1F5A02F00F00081B1F5803F40F01A8181
:1009600040F480301CE100BF2069002840F2000004
:10097000C4F2422000F0888001210160FFF7AAFD47
:10098000054600BF306880073FF572AFFFF7A2FD54
:10099000401B0228F6D9032002B0BDE8F08100BF59
:1009A000E168306A002900F09D80052900F09280FE
:1009B000012940F0AF8040F00100B1E00020C4F216
:1009C00042200021C0F88014FFF784FD054600BFD7
:1009D000706A80077FF556AFFFF77CFD401B022849
:1009E000F6D9032002B0BDE8F08100BF0027C4F2B1
:1009F000422700203866FFF76DFD022D05460DD118
:100A00003068800140F1DE80FFF764FD401B022862
:100A10004FF00300F4D902B0BDE8F08130688001E6
:100A20004FD5FFF757FD401B02284FF00300F5D9C3
:100A3000F1E700BF40F20800C2F20000006844F68F
:100A4000D351C1F26201A0FB0101480A019000BF2D
:100A500000BF0198411E002801913FF413AF00BF71
:100A60000198411E002801913FF40CAF00BF01988E
:100A7000411E002801913FF405AF00BF0198411EBF
:100A800000280191E4D1FDE600210160FFF722FD7D
:100A9000054600BF306880077FF5F1AEFFF71AFD0D
:100AA000401B02284FF00300F4D9B4E77068216AB4
:100AB00000F480328A4209D1616A00F470108842E1
:100AC00004D1002002B0BDE8F08100BF012002B0D7
:100AD000BDE8F08140F004003062306A40F001006F
:100AE0001EE000BF20F001003062306A20F00400F8
:100AF0003062FFF7EFFC054641F28837306A800725
:100B000020D5FFF7E7FC401BB8424FF00300F5D9B2
:100B100081E700BF20F001003062306A20F004005D
:100B20003062FFF7D7FC054641F28837306A80070C
:100B300008D4FFF7CFFC401BB842F7D9032002B01E
:100B4000BDE8F081B8F1000F3FF59FAEF06920F0ED
:100B50008050F06199E600BF40F48020306030683A
:100B600040F480301CE000BF20F4803030603068FA
:100B700020F480203060FFF7ADFC0546306880032C
:100B80007FF55EAEFFF7A6FC401B64284FF0030024
:100B9000F4D940E720F480303060306820F48020C1
:100BA0003060FFF797FC0546306880033FF548AE9C
:100BB000FFF790FC401B6428F6D9032002B0BDE883
:100BC000F08100BF206AB0F5803F05D17168A2684E
:100BD00021F40031114371607168626A21F474116B
:100BE00011430843706001203866FFF773FC044628
:100BF000306880013FF565AFFFF76CFC001B0228F1
:100C00004FF00300F4D906E7411E0020B0EB116F4E
:100C10001CBF012070474EF21002CEF2000251605C
:100C20004EF62351CEF20001F0230B7007219060A5
:100C300011607047704700007047000090F83C203A
:100C4000012A4FF0020236D010B580F83D2002682C
:100C5000D2F804E0D2F808C00C682EF070032343E9
:100C600040F2FF74C4F20004A24253600ADCB2F105
:100C7000804F13D040F20043C4F200039A420DD0DB
:100C800011E000BF42F60043C4F201039A4205D0CE
:100C900040F60003C4F200039A4204D149682CF0E4
:100CA0008003194391600121002280F83D1080F8F3
:100CB0003C20BDE81040104670470000002804BFEB
:100CC0000120704710B590F83D1031B9002180F82F
:100CD0003C10044600F070F82046022180F83D10D8
:100CE000016840F2FF740B68C4F2000442F6004C45
:100CF000A142C4F2010C15DCB1F1804F1AD040F2D0
:100D00000042C4F20002914214D0A14218DCB1F1B9
:100D1000804F1DD040F20042C4F20002914217D031
:100D20001AE000BF614505D040F60002C4F200029F
:100D30009142EAD1826823F070031343A142E6DDB9
:100D4000614505D040F60002C4F20002914203D191
:100D5000026923F440731343846923F08002D0F8BE
:100D600004E0C368224361450A60CB62C1F828E011
:100D700002D14269CCF8302001224A610B69DB07BD
:100D800003D00B6923F001030B6180F8462080F843
:100D90003E2080F83F2080F8402080F8412080F8F5
:100DA000422080F8432080F8442080F8452080F8D5
:100DB0003D20002010BD000080B586B0006840F2E4
:100DC0000041C4F2000188424FF00001CDE9041156
:100DD000CDE9021132D0B0F1804F3CD141F21C007C
:100DE000C4F20200016841F001010160016801F0F4
:100DF00001010191019950F8041C41F0040140F8EF
:100E0000041C50F8040C02A900F0040001900198A1
:100E1000012002900020CDE9030040F60000C4F25A
:100E20000100FFF74FFA1C2000210022FFF7D2FB40
:100E30001C20FFF7BDFB06B080BD00BF41F21C00C7
:100E4000C4F20200016841F002010160006800F094
:100E500002000190019806B080BD000090F83C208F
:100E6000012A4FF002026CD080B580F83D20D0F806
:100E700000C04FF67772DCF8083023EA0202CCF8A3
:100E800008200B684F2B29DC1F2B45DD202B46D07B
:100E9000302B44D0402B40F0AF80D1F804E0C9683B
:100EA000DCF82030DCF8202022F00102CCF82020F1
:100EB000DCF8182022F0F00242EA011123F00A02C5
:100EC00042EA0E02CCF81810CCF82020DCF808100A
:100ED00041F0470121F0300128E000BF6F2B33DDE6
:100EE000B3F5005F74D0B3F5805F21D0702B40F074
:100EF0008380D1E901E3C968DCF8082043EA0E03E6
:100F000022F47F4243EA01211143CCF80810DCF8B7
:100F1000081041F0770109E00BB1102B6CD1DCF81F
:100F2000081021F07001194341F00701CCF80810B6
:100F30000022012180F83D10002180F83C10BDE81E
:100F400080401046704700BF502B21D0602B53D1FA
:100F5000D1F804E0C968DCF82030DCF8202022F069
:100F60001002CCF82020DCF8182022F4704242EA6B
:100F7000013123F0A00242EA0E12CCF81810CCF88E
:100F80002020DCF8081041F0670121F01001CDE7C6
:100F9000D1F804E0C968DCF82030DCF8202022F029
:100FA0000102CCF82020DCF8182022F0F00242EAFE
:100FB000011123F00A0242EA0E02CCF81810CCF814
:100FC0002020DCF8081041F0570121F02001ADE7A6
:100FD000D1E901E3C968DCF8082043EA0E0322F4F2
:100FE0007F4243EA01211143CCF80810DCF80810D5
:100FF00041F480419AE700BF01229AE70068B0F10E
:10100000804F18BF704740F27000C2F20000416884
:101010004A6B0280002048627047000090F83C3024
:10102000012B04BF022070474FEAB202032A00F2EC
:101030008580F0B5DFE802F0025C203E0368D1E96C
:1010400000C5D1F80CE01C6A1A6A40F2FF7722F062
:1010500001021A621A4652F8186FC4F20007BB4226
:1010600072DCB3F1804F7BD040F20047C4F200073E
:10107000BB4275D090E000BF0768D1E900C5D1E957
:1010800002313C6A3A6A61F3071522F480723A62CF
:101090003A4652F81C6F26F0F30645EA06014FEA7D
:1010A0005C0666F3492411603C62116821F00C0172
:1010B000116066E00368D1E900E6D1E902C11C6A6B
:1010C0001A6A360222F480521A621A4652F81C5FDB
:1010D0004FF2FF07BE4325F4734561F30F364FEA25
:1010E0005E0746EA050167F34D3411601C621EE09D
:1010F0000368D1E900E6D1E902C11C6A1A6A360226
:1011000022F010021A621A4652F8185F4FF2FF07D7
:10111000BE4325F4734561F30F3624F0A0040EF0AE
:101120000A0746EA050144EA071711601F621168C1
:101130004FEA0C2321F44061116022E001210022DA
:1011400080F83C200846704742F60047C4F2010789
:10115000BB4205D040F60007C4F20007BB421BD1DA
:1011600026F00306354324F00A070CF00A066EF356
:10117000071537449D611F629F6927F00C079F6127
:101180008B681168194311600021BDE8F04000220E
:1011900080F83C200846704746F00105E3E7000070
:1011A000002804BF0120704710B590F83D1031B9F8
:1011B000002180F83C10044600F070F8204602211F
:1011C00080F83D10016840F2FF740B68C4F200041F
:1011D00042F6004CA142C4F2010C15DCB1F1804F83
:1011E0001AD040F20042C4F20002914214D0A1424F
:1011F00018DCB1F1804F1DD040F20042C4F2000271
:10120000914217D01AE000BF614505D040F60002B8
:10121000C4F200029142EAD1826823F070031343C2
:10122000A142E6DD614505D040F60002C4F20002AD
:10123000914203D1026923F440731343846923F07C
:101240008002D0F804E0C368224361450A60CB62A3
:10125000C1F828E002D14269CCF8302001224A616D
:101260000B69DB0703D00B6923F001030B6180F8E6
:10127000462080F83E2080F83F2080F8402080F80B
:10128000412080F8422080F8432080F8442080F8F4
:10129000452080F83D20002010BD00007047000070
:1012A00031B3042908D0082919BF4FF0450C412358
:1012B0004FF0440C402302E04FF0430C3F23C25C4C
:1012C00010F80C30012A4FF0010208BF012B5FD14A
:1012D0000222082922D0042950D180F83F2080F82A
:1012E00043204FEAB103032B4FF0010220D94FE016
:1012F00090F83E2090F84230012A4FF0010208BFDA
:10130000012B45D1022280F83E2080F842204FEA8E
:10131000B103032B4FF001020AD939E080F84020D5
:1013200080F844204FEAB103032B4FF001022FD87D
:1013300041F6343C0068C0F6000C5CF823C0C3687A
:1013400001F01F0143EA0C03C360036A02FA01F1D2
:1013500023EA01020262026A114340F2FF72C4F200
:1013600000029042016215DCB0F1804F1ED040F2C5
:101370000041C4F20001884218D01EE080F84120EC
:1013800080F845204FEAB103032B4FF00102CFD97B
:101390001046704742F60041C4F20101884205D070
:1013A00040F60001C4F20001884206D1816801F0D4
:1013B0000701062904BF00207047016841F00101C0
:1013C000016000207047000070B504460068C568E1
:1013D0000669B10716D515F0020113D06FF00201AE
:1013E0000161012121778069800703D02046FFF742
:1013F00005FE05E0204600F08DF9204600F07AFA5F
:1014000000202077700719D515F0040016D0206849
:101410006FF00401016102212177806910F4407F9F
:1014200004D02046FFF7EAFD06E000BF204600F0AA
:1014300071F9204600F05EFA00202077300717D5BA
:1014400015F0080014D020686FF008010161042134
:101450002177C069800703D02046FFF7CFFD05E064
:10146000204600F057F9204600F044FA002020778B
:10147000F00619D515F0100016D020686FF0100195
:10148000016108212177C06910F4407F04D0204613
:10149000FFF7B4FD06E000BF204600F03BF9204610
:1014A00000F028FA00202077F00718BF15F001009F
:1014B00002D1300609D412E020686FF00101016109
:1014C000204600F019FA300609D515F0800006D044
:1014D00020686FF0800101612046FFF7ABFB7006CA
:1014E00009D515F0400006D020686FF04001016179
:1014F000204600F003FAB00658BF70BD15F020007A
:1015000008D021686FF0200220460A61BDE87040D3
:10151000FFF792BB70BD000080B586B0016840F255
:101520000040C4F2000081424FF00001CDE90411F7
:10153000CDE9021102D006B080BD00BF41F2180112
:10154000C4F202010A6800F5823042F004020A6027
:10155000096801F0040101910199402102910221E1
:101560000391059102A9FEF7ADFE06B080BD000013
:1015700090F83C30012B04BF022070474FEAB202C2
:10158000032A00F2C1802DE9F041DFE802F0038573
:101590002F5F00BF026842F60045146A136AC4F266
:1015A000010523F0010313625368D2F818C0AA4260
:1015B0008D68D1F800E024F0020444EA05040BD160
:1015C000CD68D1E9056723F4407324F00C0425F0BD
:1015D000040533432C433B432CF0730747EA0E07C3
:1015E000536097614968516384E000BF026842F626
:1015F0000045146A136AC4F2010523F48073136270
:101600005368D2F81CC0AA428D68D1F800E024F4D7
:10161000007444EA05240FD1CD68D1E905872D0275
:1016200040F2FF4624F44064B5432C4323F4405376
:1016300047EA080543EA05132CF0730747EA0E074B
:101640005360D7614968D16354E000BF026842F635
:101650000046D2F820C0136AC4F2010623F4805376
:1016600013625368D4690D68D1F808E0B24204D11E
:101670004E6923F4804343EA861324F4E64646EA9F
:1016800005265360D6612CF40057496847EA0E33AB
:10169000116413622FE000BF026842F60045146A2D
:1016A000136AC4F2010523F0100313625368D2F8E1
:1016B00018C0AA428D68D1F800E024F0200444EA62
:1016C00005140FD1CD68D1E905876FF0400624F0ED
:1016D000C00406EA05152C4323F4406347EA0805D5
:1016E00043EA85032CF4E64747EA0E2753609761E7
:1016F0004968916314620021BDE8F041002280F83E
:101700003C200846704700BF0121002280F83C20A1
:101710000846704770470000002804BF012070474A
:1017200010B590F83D1031B9002180F83C10044606
:1017300000F070F82046022180F83D10016840F268
:10174000FF740B68C4F2000442F6004CA142C4F2DC
:10175000010C15DCB1F1804F1AD040F20042C4F206
:101760000002914214D0A14218DCB1F1804F1DD08B
:1017700040F20042C4F20002914217D01AE000BFCA
:10178000614505D040F60002C4F200029142EAD160
:10179000826823F070031343A142E6DD614505D062
:1017A00040F60002C4F20002914203D1026923F420
:1017B00040731343846923F08002D0F804E0C368C7
:1017C000224361450A60CB62C1F828E002D1426938
:1017D000CCF8302001224A610B69DB0703D00B698A
:1017E00023F001030B6180F8462080F83E2080F84A
:1017F0003F2080F8402080F8412080F8422080F887
:10180000432080F8442080F8452080F83D200020C7
:1018100010BD000070470000C1B1042908D008299C
:1018200014BF41224022825C012A05D016E000BF8D
:101830003F22825C012A11D10222082910D00429FA
:1018400014BF80F8412080F83F200BE090F83E2044
:10185000012A03D1022280F83E2003E001207047D4
:1018600080F84020006801F01F010122036A8A40CD
:1018700023EA02010162036A42F64441C4F2010113
:101880001A43A1F14403984202620FD040F2FF7163
:10189000C4F20001884213DCB0F1804F1CD040F24A
:1018A0000041C4F20001884216D01CE00A6842F4EC
:1018B00000420A6040F2FF71C4F200018842EBDD91
:1018C00042F60041C4F20101884205D040F6000111
:1018D000C4F20001884206D1816801F0070106299F
:1018E00004BF00207047016841F001010160002041
:1018F000704700007047000070470000704700000C
:10190000FEE70000FEE70000FEE700007047000071
:1019100070470000FEF7E4BD7047000040F274001D
:10192000C2F20000FFF750BDFEE7000092B0FEF7E4
:10193000E5FD06AC201D2421FEF75CFC022006908C
:1019400001200A9010200B90002520460D95FEF7EF
:101950005BFF28B1EFF3108072B600BFFEE700BF57
:101960000F20CDE9010501A80021CDE9035505951A
:10197000FEF76CFE20B1EFF3108072B6FEE700BFF9
:1019800041F21800C4F20200016840F2700441F014
:10199000040101600068C2F2000400F00400069037
:1019A00006984FF080422046002140F8042F41F66F
:1019B0003F724FF47A730991CDE90711CDE9101107
:1019C000C0E90121C0E9033180218161FFF776F987
:1019D00020B1EFF3108072B6FEE700BF4FF48050E5
:1019E0000434069006A92046FFF738FA20B1EFF339
:1019F000108072B6FEE700BF2046FFF7D1FB28B18A
:101A0000EFF3108072B600BFFEE700BF10A92046BA
:101A1000FFF714F920B1EFF3108072B6FEE700BFB4
:101A200000250120CDE9020501A9204600220195EB
:101A30000495FFF7F3FA28B1EFF3108072B600BFF8
:101A4000FEE700BF40F2BC0040F20041C2F20000DD
:101A5000C4F2000141F63F72312380E82600802164
:101A60000495CDE90255CDE91055CDE90B55CDE9E9
:101A70000955C0E903358161FFF720F920B1EFF383
:101A8000108072B6FEE700BF4FF48050019040F224
:101A9000BC00C2F2000001A9FFF7E0F920B1EFF3AA
:101AA000108072B6FEE700BF40F2BC00C2F2000038
:101AB000FFF732FE20B1EFF3108072B6FEE700BFF1
:101AC00040F2BC00C2F2000010A9FFF7B7F818B14D
:101AD000EFF3108072B6FEE73020069018200790D2
:101AE000002008900A9040F2BC00C2F2000006A953
:101AF0000022FFF73DFD18B1EFF3108072B6FEE74C
:101B000040F2BC05C2F200052846FFF705FD20465D
:101B10000021FFF7C5FB28460021FFF77DFEFEE709
:101B2000000000000000000001020304060708098D
:101B30000102000002000000040000000800000094
:101B400010000000FDFFFFFFFBFFFFFFF7FFFFFF9F
:101B5000EFFFFFFFFFFDFFFFFFFBFFFFFFF7FFFFB3
:101B6000FFEFFFFF02030405060708090A0B0C0D2F
:101B70000E0F1010981B000800000020100000003D
:101B800050010008A81B000810000020F806000003
:101B900070010008000000000100000010000000BB
:081BA00000127A0000000000B1
:04000005080000ED02
:00000001FF
