:020000040800F2
:1000000090070020BD0100083919000831190008C7
:1000100035190008BD040008F11B000800000000AD
:10002000000000000000000000000000E51B0008C8
:10003000CD040008000000003D190008E91B00087D
:10004000D7010008D7010008D7010008D701000830
:10005000D7010008D7010008D7010008D701000820
:10006000D7010008D7010008D7010008D701000810
:10007000D7010008D7010008C1040008D701000813
:10008000D7010008D7010008D7010008D7010008F0
:10009000D7010008D7010008D7010008D7010008E0
:1000A000D7010008D7010008D7010008D7010008D0
:1000B000D7010008D7010008D7010008D7010008C0
:1000C000D7010008D7010008D7010008411900082E
:1000D0004D190008D7010008D7010008D701000812
:1000E000D7010008D7010008D701000800F002F886
:1000F00000F055F814A696E8000CB244B344DA4573
:1001000001D100F04CF8BAE80F000FA696E83000D5
:10011000A5EB040504EB0607AAEB0704A7F101070A
:100120004FEA15154FEA3414A4F10104AC4201D38F
:1001300000F035F813F0010F18BFFB1A43F001036C
:1001400000F001F8DBE718479C1C0000BC1C000015
:10015000103A24BF78C878C1FAD8520724BF30C8F3
:1001600030C144BF04680C60704700007047000055
:100170000023002400250026103A28BF78C1FBD8B0
:10018000520728BF30C148BF0B607047642900F098
:100190007D80002070471FB51FBD10B510BD00F059
:1001A00052F91146FFF7F7FF01F024FD00F070F956
:1001B00003B4FFF7F2FF03BC00F078F90948804769
:1001C00009480047FEE7FEE7FEE7FEE7FEE7FEE739
:1001D000FEE7FEE7FEE7FEE704480549054A064B51
:1001E00070470000ED1B0008ED00000890010020A2
:1001F0009007002090030020900300200FB41CB54E
:10020000074B06AA7B4469460090059800F003F965
:100210000020694600F012F91CBC5DF814FB0000D8
:10022000350200002DE9F0410E4604460020206210
:100230002046E168884730B3252805D0D4E901215C
:100240009047206A401CF2E7E16820460027884773
:10025000050018D0A5F14100192802D820354FF427
:1002600000673246294620462760FFF78FFF40B1DE
:10027000012804D0F61D26F007060836D8E7361DFB
:10028000D6E72846DAE7206ABDE8F0812DE9F0419B
:100290000646002410687529314616A510D0AFF324
:1002A0000080002802DA404213A507E031688A077F
:1002B00001D512A502E0490704D511A5012401E0EA
:1002C000AFF3008000210A2206F1240709E0B0FB09
:1002D000F2FCB0FBF2F302FB1C00303078541846FD
:1002E000491C0028F3D123462A463046BDE8F04198
:1002F00000F032B8000000002D0000002B000000CC
:10030000200000004FF0000200B5134694469646C8
:10031000203922BFA0E80C50A0E80C50B1F1200118
:10032000BFF4F7AF090728BFA0E80C5048BF0CC0C6
:100330005DF804EB890028BF40F8042B08BF704724
:1003400048BF20F8022B11F0804F18BF00F8012B96
:1003500070477047704770472DE9F0470D46994642
:100360009246044600F124080168880604D5E06935
:1003700021F01001216000E00120A84201DD471BAF
:1003800000E00027A1697A1902EB0900081AA061B0
:100390002078C00602D42046AFF30080002608E093
:1003A000D4E901211AF806009047206A401C761C07
:1003B00020624E45F4DB2078C0060AD52046AFF314
:1003C000008006E0D4E9012130209047206A401CDB
:1003D0002062381EA7F10107F4DC07E0D4E901210F
:1003E00018F805009047206A401C2062281EA5F1DD
:1003F0000105F3DC2046AFF300802078000602D52B
:100400000220BDE8F0870120FBE7000001694A1CDB
:1004100002610878704700B58FB0CDE90131002145
:10042000059105497944CDE9031011466846FFF767
:10043000F9FE0FB000BD0000E5FFFFFF0A6802F8FB
:10044000010B0A607047754600F02CF8AE460500B7
:100450006946534620F00700854618B020B5FFF7DF
:10046000BBFEBDE820404FF000064FF000074FF004
:1004700000084FF0000BAC46ACE8C009ACE8C0097E
:10048000ACE8C009ACE8C00921F007018D4670470F
:1004900010B50446AFF300802046BDE81040FFF7DA
:1004A00087BE000000487047200000200149182046
:1004B000ABBEFEE72600020070470000FEE700002A
:1004C00040F2F000C2F2000000F064B87047000093
:1004D000EFF3108072B600BFFEE7000090F8211025
:1004E000022923D1026840F2040C1168C4F2020C04
:1004F00021F00E01116013682F21C4F202018A421B
:1005000023F00103136015DD3023C4F202039A4285
:100510001CD04423C4F202039A421BD05823C4F2D5
:1005200002039A421CD14FF4803321E004218163FD
:10053000012070470823C4F202039A420ED01C2304
:10054000C4F202039A420BD1102311E04FF48073DE
:100550000EE000BF4FF480530AE000BF012307E024
:100560000CF168014FF080738A4208BF4FF480138A
:100570000121CCF8003080F82110416B00220029C5
:1005800080F8202004BF0020704780B588470020F5
:1005900080BD000010B5D0E90FCE0168DCF8003056
:1005A0000A6823FA0EF35C072AD512F0040427D058
:1005B0000A68920603D40A6822F004020A602F2215
:1005C000C4F20202914240F20402C4F202025BDD74
:1005D0003023C4F20203994272D04423C4F20203CE
:1005E000994273D05823C4F20203994240F07A80B2
:1005F0004FF480231360C16A002940F098806FE0B7
:100600009C0727D512F0020424D00A68920606D46B
:100610000A6822F00A020A60012280F821202F22B3
:10062000C4F20202914240F20402C4F202023BDD33
:100630003023C4F20203994260D04423C4F202037F
:1006400099425FD05823C4F20203994260D14FF41B
:10065000003365E01B0743D512F0080208BF10BD48
:100660000A6822F00E020A60012101FA0EF2CCF8AB
:100670000420816380F82110016B0022002980F89A
:10068000202054D12CE000BF0823C4F20203994279
:1006900022D01C23C4F20203994223D140231360C9
:1006A000C16A002943D11BE00823C4F20203994226
:1006B0002CD01C23C4F20203994229D120232FE01D
:1006C0004FF480631360C16A89BB09E04FF4804333
:1006D0001360C16A59BB03E004231360C16A31BBD4
:1006E00010BD00BF02F168044FF08063A14208BF53
:1006F0004FF480031360C16AC9B9F1E74FF4007386
:100700000EE000BF4FF400530AE000BF022307E0F1
:1007100002F168044FF00073A14208BF4FF40013C8
:100720001360816A0022002980F82020D8D0BDE81B
:1007300010400847014600284FF0010008BF7047ED
:100740002DE9F043D1F800C04FF6F873CBF6FD73F6
:100750004CF6CD426344CCF6CC42A3FB02236FF0AF
:10076000030202EA93020023C4F2020301F10C081F
:10077000C1E90F320222D1E9019E98E8F00181F827
:100780002120DCF8002043F6F0739A4342EA090284
:1007900042EA0E0222432A4332433A4342EA080223
:1007A000CCF8002000228A6381F8210081F8202003
:1007B0000020BDE8F043704790F820C0BCF1010F65
:1007C00004BF02207047F0B54FF0010E80F820E022
:1007D00090F821C0BCF1010F26D14FF0020C80F837
:1007E00021C04FF0000CC0F838C0D0E900C4C56A81
:1007F000C66BDCF80070102C27F00107CCF80070F5
:10080000006C0EFA00F070600846CCF8043004BFAB
:1008100010460A46CCF80800CCF80C20DCF80000A2
:1008200045B140F00E000DE0002180F820100220BC
:10083000F0BD00BF20F00400CCF80000DCF80000A0
:1008400040F00A00CCF80000DCF8000040F00100A5
:10085000CCF800000020F0BDB0B5044600F01EF951
:10086000054640F20000C2F200000078611C18BF8B
:10087000044400BF00F012F9401BA042FAD3B0BDFF
:100880002DE9F04F82B00E68002E00F0FD8041F29D
:100890000042C4F20102042340F2004E904208BF1D
:1008A00003234FF6FF7CC4F2010E009300240123C2
:1008B000C1F2100C4FF0000A4FF000094BE000BFEE
:1008C00041F20002C4F20102009F904208BF0227D9
:1008D00004F00C030F229A402BEA020207FA03F3FA
:1008E0004FEA9A051A4346F825204E6840F20C4517
:1008F000F202DEF8082054BF22EA080242EA0802A7
:10090000C4F20105CEF808202A68B30254BF22EAD7
:10091000080242EA08022A60B303DEF8042054BF4A
:1009200022EA080242EA0802F303CEF80420DEF8C5
:1009300000204FF0010354BF22EA080242EA0802F5
:10094000CEF800200E680AF1010A36FA0AF204F124
:10095000040400F0998003FA0AFB16EA0B08F1D0B0
:100960004E68664512DC122E56D8DFE806F0350BCD
:100970004D4955555555555555555555555555454B
:10098000510000BFD1F80C9046E000BF4FF6FF7257
:10099000C1F2210296420FDC0022C1F211029642FE
:1009A0001AD00022C1F21202964215D00022C1F2E2
:1009B0002102964210D02FE00022C1F2220296427C
:1009C0000AD00022C1F23102964205D00022C1F2C3
:1009D0003202964220D100BF8A684AB1012A14BF70
:1009E000C0F814B0C0F810B04FF0080914E000BF10
:1009F0004FF0040910E000BFCA6802F104090BE0DF
:100A00004FF0000908E000BFCA6802F1080903E0DE
:100A1000CA6802F10C0900BF02462646B8F5807F7D
:100A200024BF0432203E17680F25B54027EA05058C
:100A300009FA06F635431560CA79D2067FF582AF0A
:100A400041F21803C4F202031A68AEF57E7642F052
:100A500001021A601A6802F001020192019A2AF05A
:100A6000030256F802B040F60002C4F201029042BE
:100A700008D040F60042C4F2010290427FF420AF59
:100A8000012725E7002723E702B0BDE8F08F00002B
:100A9000002A08BF090401617047000040F28C1071
:100AA000C2F200000068704740F2000040F28C1172
:100AB000C2F20000C2F2000100780A681044086027
:100AC0007047000080B542F20000C4F202000168E5
:100AD00041F010010160032000F08CF80F2000F0BD
:100AE00005F800F027F8002080BD000070B540F246
:100AF0000006C2F2000640F208013278C2F200019C
:100B00004FF47A730968B3FBF2F20446B1FBF2F1D9
:100B1000084600F0F7FE0F2C4FF0010508D838B951
:100B20004FF0FF3021460022002500F037F87460B6
:100B3000284670BD82B041F21800C4F2020001687C
:100B4000022241F001010160016801F001010191FF
:100B50000199416841F080514160406800F0805047
:100B6000009000980420C4F20100016862F31A6149
:100B7000016002B070470000002848BF704700F0D5
:100B80001F01012202FA01F11C2202EAD0004EF2FA
:100B90000012CEF2000281507047000010B54EF6F0
:100BA0000C5CCEF2000CDCF80030C3F3022E8EF0A9
:100BB0000704042C28BF0424BEF103034FF0FF3EBA
:100BC0000EFA04F438BF0023A14399400EFA03F350
:100BD0009A43114300F00F0200F160430901043A07
:100BE00003F564436244002848BF02F10C03197006
:100BF00010BD00004EF60C51CEF200010A684FF60F
:100C0000FF031A4060F30A2242F0806040F0FD705A
:100C100008607047002804BF012070472DE9F043A9
:100C200081B042F20008C4F202080446D8F800007D
:100C30000D4600F0070088420CD2D8F8000020F0E2
:100C400007002843C8F80000D8F8000000F00700AB
:100C5000A8426CD1206841F204098107C4F202095C
:100C600017D5410705D5D9F8001041F4E061C9F85E
:100C70000010010705D5D9F8001041F46051C9F8FA
:100C80000010D9F80010A26821F0F0011143C9F852
:100C90000010C00742D1D8F8000000F00700A842B9
:100CA0000CD9D8F8000020F007002843C8F800004D
:100CB000D8F8000000F00700A84238D120684107AA
:100CC00007D5D9F80010E26821F4E0611143C9F8B2
:100CD0000010000708D5D9F80000216920F4605001
:100CE00040EAC100C9F80000D9F8002002F00C0069
:100CF000082841F20020C0F27A004DD141F6D253CB
:100D0000C2F38341C0F60003595CD20338D440F6E5
:100D10000010C0F23D0048433EE000BF606859F853
:100D2000041C022808D0012826D1890306D40120FA
:100D300001B0BDE8F08300BF8901F8D5D9F80010F3
:100D400021F003010843C9F80000FFF7A7FE06469B
:100D500041F28837D9F80000616800F00C00B0EB70
:100D6000810F98D0FFF79AFE801BB842F2D903207A
:100D700001B0BDE8F08300BF8907D8D5DEE700BF2A
:100D8000D9F8002041F6D053C2F34042C0F6000328
:100D90009A5C4843B0FBF2F0D9F8001041F6C0521B
:100DA000C1F30311C0F60002515C40F2080220FAC0
:100DB00001F140F20400C2F200000068C2F2000239
:100DC0001160FFF793FE002001B0BDE8F083000042
:100DD000002804BF012070472DE9F04182B004468D
:100DE000007841F20006C007C4F202060CD0706819
:100DF00000F00C00042840F081803068800303D5A7
:100E00006068002800F04681207880071BD5706854
:100E100010F00C0F09D0706800F00C00082840F0AA
:100E200087807068C00300F183803068800703D535
:100E30002069012840F02E813068616920F0F800B7
:100E400040EAC10030602078000713D420784007C2
:100E50002CD4E569002D00F01881706800F00C00BA
:100E6000082840F0A780012D40F00481012002B045
:100E7000BDE8F081A069002800F084800020C4F261
:100E800042200121C0F88014FFF708FE054600BF8C
:100E9000706A800700F1B280FFF700FE401B022855
:100EA000F6D9032002B0BDE8F08100BFF0695FEA27
:100EB000C00808D4F06940F08050F061F06900F09B
:100EC00080500090009847F20007C4F2000738688D
:100ED000C00549D4386840F480703860FFF7DEFD03
:100EE000054600BF3868C0053ED4FFF7D7FD401B5C
:100EF0006428F7D9032002B0BDE8F081706800F0E3
:100F00000C00082803D17068C0033FF576AF616814
:100F10003068002900F00C81B1F5A02F00F00081AD
:100F2000B1F5803F40F01A8140F480301CE100BFF1
:100F30002069002840F20000C4F2422000F08880BE
:100F400001210160FFF7AAFD054600BF3068800758
:100F50003FF572AFFFF7A2FD401B0228F6D9032030
:100F600002B0BDE8F08100BFE168306A002900F0FE
:100F70009D80052900F09280012940F0AF8040F06B
:100F80000100B1E00020C4F242200021C0F880142A
:100F9000FFF784FD054600BF706A80077FF556AFF6
:100FA000FFF77CFD401B0228F6D9032002B0BDE804
:100FB000F08100BF0027C4F2422700203866FFF707
:100FC0006DFD022D05460DD13068800140F1DE80B7
:100FD000FFF764FD401B02284FF00300F4D902B074
:100FE000BDE8F081306880014FD5FFF757FD401B09
:100FF00002284FF00300F5D9F1E700BF40F20800E6
:10100000C2F20000006844F6D351C1F26201A0FBB5
:101010000101480A019000BF00BF0198411E00284D
:1010200001913FF413AF00BF0198411E00280191C8
:101030003FF40CAF00BF0198411E002801913FF41E
:1010400005AF00BF0198411E00280191E4D1FDE6E3
:1010500000210160FFF722FD054600BF30688007D0
:101060007FF5F1AEFFF71AFD401B02284FF0030099
:10107000F4D9B4E77068216A00F480328A4209D159
:10108000616A00F47010884204D1002002B0BDE80B
:10109000F08100BF012002B0BDE8F08140F0040003
:1010A0003062306A40F001001EE000BF20F0010015
:1010B0003062306A20F004003062FFF7EFFC054632
:1010C00041F28837306A800720D5FFF7E7FC401BE4
:1010D000B8424FF00300F5D981E700BF20F00100CE
:1010E0003062306A20F004003062FFF7D7FC05461A
:1010F00041F28837306A800708D4FFF7CFFC401BE5
:10110000B842F7D9032002B0BDE8F081B8F1000F72
:101110003FF59FAEF06920F08050F06199E600BF86
:1011200040F480203060306840F480301CE000BF24
:1011300020F480303060306820F480203060FFF789
:10114000ADFC0546306880037FF55EAEFFF7A6FC78
:10115000401B64284FF00300F4D940E720F48030AE
:101160003060306820F480203060FFF797FC05463F
:10117000306880033FF548AEFFF790FC401B6428C1
:10118000F6D9032002B0BDE8F08100BF206AB0F5B7
:10119000803F05D17168A26821F40031114371606C
:1011A0007168626A21F47411114308437060012070
:1011B0003866FFF773FC0446306880013FF565AF81
:1011C000FFF76CFC001B02284FF00300F4D906E780
:1011D00070470000B0B584B001684A688B6803F0BE
:1011E0004105012D08D112F0400505D0016C04B075
:1011F000BDE8B040084700BF9D0707D512F0800545
:1012000004D0416C04B0BDE8B040084713F0600F53
:1012100018BF12F0200501D104B0B0BD5D0618D58D
:1012200090F85150032D09D100200290C868029017
:1012300088680290029804B0B0BD00BF456D45F0CB
:101240000405456500250395CD6803958D680395D4
:10125000039D9B060CD5436D43F0010343650023BA
:1012600001938B6801930B6823F040030B60019B93
:10127000436D002BD0D04B68920723F0E0034B6006
:101280004FF0010380F8513026D04A6841F65914D6
:1012900022F003024A60C16CC0F6000459B1054651
:1012A00008464C63FFF71AF90146284619B1416D0B
:1012B00041F040014165816C0029ADD04C6304468A
:1012C0000846FFF70BF90028A6D0606D40F04000FB
:1012D000606504B0B0BD00BF04B0BDE8B040FFF72A
:1012E00077BF000070B528B1416A29B100210161C2
:1012F000142106E0012070BD4168B1F5827F02D063
:101300001C21002242500026866290F8511029B913
:1013100080F85060054600F039F82846022180F830
:10132000511090E82E0002F482720C6803F404431A
:1013300024F040040C601A4405F4006305691A4463
:1013400005F0020345691A4405F001038569C46983
:101350001A4405F400731A4404F03803046A1A446A
:1013600004F08003846A1A4304F400531A430A60A9
:10137000042202EA15424A60CA6922F40062CA6184
:101380000121466580F85110304670BDF0B585B03A
:10139000016843F60002C4F200020027914204975C
:1013A000CDE90277019737D043F20000C4F2010083
:1013B000814240F0868041F21800C4F202000168C8
:1013C00040F6000441F4805101600168C4F2010458
:1013D00001F4805100910099016801AD41F00401D0
:1013E00001600068294600F0040000900098A020E9
:1013F000019002200290032004902046FFF740FA5B
:10140000402001900020CDE9020020462946FFF748
:1014100037FA23244DE000BF064641F21800C4F21B
:101420000200416801AD41F480414160416801F42E
:10143000804100910099016841F008010160006855
:10144000294600F00800009000984FF43040CDE9A4
:10145000010740F60000C4F2010000F58064204658
:101460000397FFF70DFA4FF480400190022002909D
:101470000320049020462946FFF702FA40F2F004C8
:101480004420C2F20004C4F2020080212022C4E9F8
:1014900000072046C4E90271C4E90477C4E90627BD
:1014A000FFF748F9002818BFFFF712F8F4646662E6
:1014B0002424204600210022FFF770FB2046FFF77E
:1014C0005BFB05B0F0BD0000B0B590F85140012CB9
:1014D0001ED1D0F808C013460A46BCF1000F0BD14C
:1014E0004168B1F5827F07D10424114680F851404C
:1014F000BDE8B04000F068B9002A4FF0010118BF04
:10150000002B01D10846B0BD90F85010012901D13F
:101510000220B0BD012180F8501004214FF0000ED0
:1015200080F85110C0F854E082638387C387C0E914
:1015300010EEA0F834E0A0F836E00168BCF5004FEA
:1015400007D10B6823F040030B600B6823F4804342
:101550000B60D0F84CC041F6851341F6951441F666
:101560006515C0F60003C0F60004C0F60005CCE91E
:101570000A43CCE90C5EC38F04460C316046FFF78A
:101580001BF948B1606D40F010006065002084F8E0
:1015900050000120B0BD00BF20680168490603D497
:1015A000016841F040010160002184F85010426858
:1015B00042F020024260426842F001024260084666
:1015C000B0BD000070470000704700002DE9F041F9
:1015D00082B01D4616460F460446FFF75FFA94F8A0
:1015E000511001290ED18046002F4FF0010018BF85
:1015F000002E03D102B0BDE8F08100BF94F8500086
:10160000012803D1022002B0BDE8F081012084F856
:1016100050000320002184F8510061652763A686ED
:10162000E686A163A187E187A0682164B0F5004F39
:101630002068616407D1016821F040010160016800
:1016400041F4804101600168490603D4016841F01A
:10165000400101606168731EE268B1FA81F1B3FA7A
:1016600083F349095B09B2F5006F41EA030139D1FF
:1016700031B137F8021BC1602763E08E0138E08684
:10168000E08E002870D0681C0BD11AE0216B31F875
:10169000022BC2602163E08E0138E086E08E0028D4
:1016A00062D0206881688907F0D4FFF7F7F9A0EBD2
:1016B0000800A842F2D338E0FFF7F0F9E08E0028E6
:1016C00052D0206881688907F6D5216B31F8022B4A
:1016D000C2602163E08E0138E086E08E0028F0D100
:1016E00042E000BF39B139780173206B01302063CB
:1016F000E08E0138E086E08EB0B3681C0BD123E0A9
:10170000216B09780173206B01302063E08E013872
:10171000E086E08E40B3206881688907F0D4FFF747
:10172000BDF9A0EB0800A842F3D3012084F85100D2
:10173000002084F85000032002B0BDE8F08100BF13
:10174000FFF7ACF9E08E78B1206881688907F7D59A
:10175000216B09780173206B01302063E08E013822
:10176000E086E08E0028EFD12046022101222B46A0
:10177000CDF8008000F0A6F940B920468021002273
:101780002B46CDF8008000F09DF928B1606D40F047
:101790002000606520206065A06838B900200190B5
:1017A0002068C1680191806801900198012084F847
:1017B0005100002084F85000606D002818BF0120FF
:1017C00002B0BDE8F081000070B590F85150012DD5
:1017D00008D100294FF0010C18BF002A0ED1604635
:1017E00070BD00BF4468B4F5827F0DD1042D4FF069
:1017F000020CF4D18568002DEBD0F0E7002BEED081
:1018000090F85050012D01D1022070BD012580F8C3
:10181000505090F851500024042D1CBF052580F82D
:101820005150446501638386C38682638387C3877F
:10183000C0E9104490F8511041F6851341F68D1619
:10184000C0F60003C0F600060568D0F84CC00429B5
:1018500008BF1E4641F6951141F64123C0F600012E
:10186000C0F6000308BF0B4641F66511C0F6000143
:10187000CCE90A36CCE90C14C38F064605F10C01FD
:101880006046FEF799FF38B1706D40F0100070654A
:10189000012086F8504070BD3568B06C696805F16C
:1018A0000C0241F001016960C0E90A44C0E90C443E
:1018B000316BF38EFEF780FF40B1706D40F0100089
:1018C0007065002086F85000012070BD30683546F4
:1018D0000168490603D4016841F0400101604FF0FE
:1018E000000C85F850C0416841F02001416041681A
:1018F00041F002014160604670BD00007047000089
:1019000070470000411E0020B0EB116F1CBF01208A
:1019100070474EF21002CEF2000251604EF6235193
:10192000CEF20001F0230B70072190601160704728
:10193000FEE70000FEE70000FEE700007047000041
:1019400040F23410C2F20000FFF744BC40F29800AD
:10195000C2F20000FFF73EBC406A0021C187C18689
:10196000FFF736BC406A01684A6822F003024A6009
:10197000416D41F010014165012180F85110FFF7E0
:1019800027BC0000406AFFF71FBE0000406AFFF757
:10199000B7BF0000B0B582B0446A0546FFF77EF8D5
:1019A00029680968890645D484462068A168426888
:1019B00022F02002426049B96268B2F5827F05D107
:1019C000416821F00301416018E000BF426822F045
:1019D000010242606268B2F5827F0FD1B1F5004F1B
:1019E00002D0B1F5806F09D10268B1F5806F22F0A5
:1019F0004002026002D12046012101E02046802100
:101A000000226423CDF800C000F05CF828B1606DBE
:101A100040F020006065202060650020E087012004
:101A200084F85100606D28B1204602B0BDE8B04096
:101A3000FFF7CEBB204602B0BDE8B040FFF7C2BD05
:101A4000B0B582B0446A0546FFF728F829680968EE
:101A5000890631D40546206801224168642321F0BB
:101A60002001416020460221009500F02BF838B992
:101A70002046802100226423009500F023F838B12D
:101A8000606D40F020006065606D40F02000606592
:101A90002068416821F0030141600020E086E08772
:101AA000012084F85100606D30B1204602B0BDE8DD
:101AB000B040FFF78DBB00BF204602B0BDE8B0408C
:101AC000FFF71CBF2DE9F04381B0089C98461546EE
:101AD0000E468146FEF7E2FF201A00EB0804FEF7EF
:101AE000DDFF40F20801C2F200010968C1F3CB3109
:101AF00061430091D9F800108A683240921BB2FA13
:101B000082F25209AA423DD0074618F1010031D0B5
:101B1000FEF7C4FFC01BA04238D2009800990028ED
:101B2000A1F101010091D9F80010896808BF0446AD
:101B300001EA0600801BB0FA80F04009A842E7D114
:101B400020E000BF88683040801BB0FA80F0400978
:101B5000A84217D088683040801BB0FA80F0400956
:101B6000A8420FD088683040801BB0FA80F040094E
:101B7000A84207D088683040801BB0FA80F0400946
:101B8000A842DFD1002001B0BDE8F083D9E900010F
:101B90004268B1F5827F22F0E00242600BD1D9F8B1
:101BA0000810B1F5004F02D0B1F5806F03D1016884
:101BB00021F040010160D9F82810B1F5005F07D18C
:101BC000016821F400510160016841F40051016095
:101BD000012089F85100002089F85000032001B04D
:101BE000BDE8F08370470000FEF75EBF704700005D
:101BF000FEE7000090B0FEF765FF06AC201D242133
:101C0000FEF780FB0220069001200A9010200B9026
:101C1000002520460D95FFF7DBF828B1EFF3108083
:101C200072B600BFFEE700BF0F20CDE9010501A895
:101C30000021CDE903550595FEF7ECFF20B1EFF348
:101C4000108072B6FEE700BF002541F21806CDE90C
:101C50000855CDE90655C4F20206306840F6000882
:101C600040F0040030603068C4F2010800F0040065
:101C7000019001983068102140F008003060306811
:101C8000012200F00800019001984046102401272D
:101C9000FEF7FEFE0220099006A94046CDE9064760
:101CA0000895FEF7EDFD56F8040C002140F0010008
:101CB00046F8040C56F8040C002200F001000690CF
:101CC00006980E20FEF76AFF0E20FEF755FF40F241
:101CD000341008F52051C2F200004FF400730A26B8
:101CE0004FF4827280E82600C0E90355C0E905532D
:101CF000C461C0E90855C0E90A56FFF7F3FA28B1F4
:101D0000EFF3108072B600BFFEE700BF40F2800420
:101D1000C2F20004A8F55041204640F8181FC0E95F
:101D20000155C0E90355C0E90555C0E90855C0E9AA
:101D30000A56FFF7D7FA28B1EFF3108072B600BF4A
:101D4000FEE700BF04F11800611C1422FFF7BCFB82
:101D500040F2341540F20C06C2F20005C2F2000651
:101D60002846314614226423FFF730FC0FA700BF3A
:101D7000227830463946FEF741FA404610210022CB
:101D8000FEF786FE2846314614226423FFF71EFC28
:101D9000404610210122FEF77BFE207801302070A2
:101DA0004FF47A70FEF758FDE2E700BF67756920CF
:101DB0006C616E207468752025643A200000000074
:101DC00000000000000000000102030406070809EB
:101DD000010202030405060708090A0B0C0D0E0F89
:101DE00010100000081E0008000000202000000065
:101DF00050010008281E0008200000207007000085
:101E00007001000800000000010000001000000048
:101E100000127A004D61737465722073656E640000
:081E20000000000000000000BA
:04000005080000ED02
:00000001FF
